:100000000C947C010C94B51B0C94C3010C94C3019B
:100010000C94C3010C94C3010C94C3010C94C30150
:100020000C94C3010C94C3010C948F230C94622490
:100030000C949C1E0C94C3010C94C3010C94C3013A
:100040000C94C3010C94C3010C94C3010C94C30120
:100050000C94C3010C942E1F0C94C3010C94C30187
:100060000C94C3010C94C3010C94C3010C94C30100
:100070000C94C3010C94C3010C94C3010C94C301F0
:100080000C94C3010C94C3010C94C3010C94C301E0
:100090000C94C3010C94C3010C94C3010C94C301D0
:1000A0000C94C3010C94C3010C94C30135001E00D1
:1000B0001F002000210022002B0014001A0008005D
:1000C00015001700015104001600070009000A007E
:1000D000E1001D001B000600190005002900E000DA
:1000E0003900E200E3002C000000000000000000E6
:1000F00028002A00230024002500260027002E00C7
:100100001C0018000C00120013002D000B000D0045
:100110000E000F00330034000500110010003600FF
:10012000370038002C00E7005000510052004F000B
:100130002A00280000000000000000003A003B00F8
:100140003C003D003E003F00010001005200010064
:10015000010001000100500051004F0001002F007C
:1001600001004A004B004E00010026020100010080
:10017000010001000100010000000000000000007B
:1001800001000100400041004200430044004500DE
:10019000010024002500260001000100300021009C
:1001A000220023000100010027021E001F00200082
:1001B0000100010001002700010001000100010011
:1001C0000100010000000000000000000C035700C7
:1001D00069006E0067004200000010034D006100DE
:1001E00073007400650072007900000004030904C4
:1001F00009023B00020100A0FA090400000103010A
:1002000001000921110100012240000705810308B6
:10021000000A090401000103000000092111010086
:1002200001227B000705820320000A120100020060
:10023000000008EDFE6666010001020001050109EB
:1002400002A10185020901A100050919012908156A
:100250000025019508750181020501093009311554
:1002600081257F95027508810609381581257F95BE
:100270000175088106050C0A38021581257F950154
:1002800075088106C0C005010980A1018503190117
:100290002AB700150126B700950175108100C00529
:1002A0000C0901A101850419012AA002150126A04B
:1002B00002950175108100C005010906A10105071D
:1002C00019E029E7150025019508750181029501BE
:1002D000750881010507190029FF150026FF009503
:1002E0000675088100050819012905950575019114
:1002F00002950175039101C011241FBECFEFDAE012
:10030000DEBFCDBF04B603FE27C08091B702909137
:10031000B802A091B902B091BA028730904BA740C1
:10032000B04BD1F41092B7021092B8021092B902F9
:100330001092BA0214BE84B7877F84BF0FB6F894B8
:10034000A8958091600088618093600010926000A1
:100350000FBEE0E0F8E3099511E0A0E0B1E0E4E1D0
:10036000FEE402C005900D92A43AB107D9F722E04D
:10037000A4EAB1E001C01D92A73BB207E1F70E94D9
:1003800053150C94AC260C9400000C943D1181E0A4
:10039000089581E008950C94C70108950C94CD014F
:1003A0001F93CF93DF9300D000D00F92CDB7DEB76D
:1003B00049835A836B833091A60189819A813111D7
:1003C0001DC06623B9F02223A9F00E94AE08182FA1
:1003D000682F89819A810E94550869817A81812FCD
:1003E0000F900F900F900F900F90DF91CF911F9172
:1003F0000C94DD0E0E948408182FEFCF0E94AE08E7
:1004000069817A81EDCFFC01262F40815181628183
:10041000738184810C94D00181E00895CF93DF93A0
:10042000D82FC92F60E00E9403026D2F7C2FDF912F
:10043000CF910C94CE010E9405110E948C020C9465
:10044000C5010C943F1108950E942E060E942302BC
:100450002FEF84E39CE0215080409040E1F700C002
:1004600000000C94521F0F931F93CF93DF938C01C6
:1004700061E00E940302EC01B8010E94CB018823D5
:10048000A9F1B801CE010E94BD19882379F1B80104
:10049000CE010E94121A882349F1B801CE010E94B0
:1004A000E51A882319F1F8018281882361F0CB35A0
:1004B000FDE5DF0721F170F4C115ECE5DE07A1F0E1
:1004C000CF3DDC45C9F0C801DF91CF911F910F915D
:1004D0000C94C901CC358DE5D807A1F0CD35DD45AB
:1004E00091F70E94830CEFCF0E94240280E0DF91FD
:1004F000CF911F910F9108950E94FD0DF7CF0E949B
:100500008C0CE1CF0E948F0CDECF08950C948502F5
:1005100081E008950C9488020895CF93C82F0E941B
:1005200086028C2FCF910C948A02CF93DF93CDB7A4
:10053000DEB72B970FB6F894DEBF0FBECDBF4F834B
:10054000588769877A878B8761110E94B40C1E8255
:1005500085E0FE013796DE01119601900D928A9595
:10056000E1F78C819D81892B89F449815A816B81C6
:100570007C818D819E810E94AC0B2B960FB6F894E6
:10058000DEBF0FBECDBFDF91CF91089589819A81E3
:1005900089238F3F51F3CE0101960E940C028111F5
:1005A000E4CFEBCFFC01808191810C94F008CF93D4
:1005B000C82F882309F44BC08CEF8C0F813AC8F404
:1005C0008C2F0E94F015811142C06C2F8091000188
:1005D000909101010E94A01D882329F08C2F0E9478
:1005E000530C0E94E50C8C2F0E944C0CCF910C9464
:1005F000E50C80E28C0F883048F4C77081E001C0C0
:10060000880FCA95EAF70E94950CF0CF8BE58C0F06
:10061000833038F42C2F2452330BC901CF910C9422
:10062000621DE8E5EC0FE73150F4F0E0EE0FFF1F3C
:10063000EC5CFE4F80819181CF910C94781DCD3E72
:1006400030F08C2F0E942E17CF910C940118CF916F
:100650000895882361F19CEF980F913A20F40E944D
:10066000530C0C94E50C90E2980F983050F487707E
:1006700091E001C0990F8A95EAF7892F0E949B0C9F
:10068000F0CF9BE5980F933020F490E080E00C943D
:10069000621D98E5980F973120F490E080E00C946B
:1006A000781D8D3E20F00E9488170C940118089543
:1006B0001F93CF93DF93182FEB010E94D70220974F
:1006C00031F4812FDF91CF911F910C9429038FE991
:1006D0009FE00197F1F700C000002197F0CF70E094
:1006E00060E0893311F460E570E00C9458038823CE
:1006F00021F00E94950C0C94E50C0895882321F0BC
:100700000E949B0C0C94E50C0895AF92BF92CF927F
:10071000DF92EF92FF920F931F93CF93DF9300D05E
:1007200000D00F92CDB7DEB76C016D837983FC01E9
:100730001281058102950F700E946A0CE82E8823B1
:10074000A1F0E12E112389F08981807F803429F086
:100750008D81805EE12C883040F082E00E94360D71
:100760000E946A0C91E0E82EE926A980A2949FE0FD
:10077000A922B12CF501E255F94D0C943A260981D4
:100780000F70F981F07F11F00295007F1123B1F015
:10079000002361F08D81805E883018F02D81211159
:1007A00009C0802F0E94950C0E94E50C8D810E944B
:1007B000D70215C0802F0E94A60CF6CF8D810E9413
:1007C0002903002361F08D81805E883018F04D810F
:1007D000411133C0802F0E949B0C0E94E50C58E011
:1007E000A51AB10864E0A616B10420F40E94351DD4
:1007F0000E948D02EE2009F4CCC10E94660C80FD9F
:10080000C8C1F60112820E94600C0E944507C60111
:100810000E94F0050E94600C0F900F900F900F90B7
:100820000F90DF91CF911F910F91FF90EF90DF908C
:10083000CF90BF90AF900C947607802F0E94AC0CA5
:10084000CCCF59815F70F52E6981607F603219F0DD
:10085000F29480EFF8227D81772369F0713049F1BD
:10086000112391F1002351F1F601858180FF9ECF84
:100870008F70858323C0112381F0011106C00E946F
:10088000C80C8F290E947703AACF0130C1F70E94BC
:10089000C80C8F290E94CE0CA2CF011106C00E9465
:1008A000DB0C8F2D0E947E039ACF013009F497CF85
:1008B000F6CF112329F0063008F091CF8F2DE2CF2B
:1008C000053008F08CCFEDCF002359F3FD81F933CB
:1008D00049F42FEF47EE53E0215040405040E1F7FC
:1008E00000C000008D810E94290379CF89818695FF
:1008F0008695837069F0813009F071CF8D8199817F
:100900009370111102C090E080E00E94781D67CFC3
:100910008D8199819370111102C090E080E00E9456
:10092000621D5DCF8D81112329F00E942E170E9438
:10093000011855CF0E948817FACF8981837009F07A
:1009400050C011114CCF4D81429546954770440FD0
:10095000440F8D818F7090E0B0E0A0E0042E04C0C1
:10096000880F991FAA1FBB1F0A94D2F76D8100E060
:1009700010E0980164FF0FC00FE010E020E030E0CD
:1009800004C0000F111F221F331F4A95D2F7009594
:1009900010952095309579817695769573707D8345
:1009A000B901A801482B592B6A2B7B2B49835A8309
:1009B0006B837C835D8169817A818B819C815230DC
:1009C00051F0533059F0513019F00E94BB0607CF57
:1009D0000E94930604CF0E94E30601CF0E94910675
:1009E000FECE8695112311F089818170882309F448
:1009F000F6CE4D81429546954770440F440F8D8148
:100A00008F7090E0B0E0A0E0042E04C0880F991F22
:100A1000AA1FBB1F0A94D2F76D8100E010E0980175
:100A200064FF0FC00FE010E020E030E004C0000FD2
:100A3000111F221F331F4A95D2F70095109520955C
:100A4000309579817695769573707D83B901A8018B
:100A5000482B592B6A2B7B2B49835A836B837C83CE
:100A60005D8169817A818B819C81523051F0533054
:100A700059F0513019F00E940408B1CE0E94DC07F1
:100A8000AECE0E942C08ABCE0E940F07A8CE698183
:100A90006F706983112329F0862F0E9445078D818D
:100AA000F1CE8D810E947E0389810E94760797CEC8
:100AB0007D81723FA1F160F4703FE1F0713F41F13F
:100AC000112309F445C0011171CE89818F7124C0B1
:100AD0008D81833F49F1843F99F7112379F1998101
:100AE0009F719983892F0E94450763E089810E9445
:100AF0001B0D75CE112341F0053008F070CE8981B1
:100B00008F710E94AB076BCE063008F068CEF7CF2E
:100B100089818F71112349F20E94450760CE898136
:100B20008F711123C9F3C1CF112329F089818F71EE
:100B30000E94200754CE0E941B0751CE81E00E94E4
:100B4000360D023008F44BCE82E00E94360D47CEBF
:100B5000002361F0ED81E93309F0C4CEFFEF27EE09
:100B600043E0F15020404040E1F7BACE89818F71D7
:100B70009CCF49814F706D81C6010E94D90E0E94A1
:100B800026092DCE49814F706D81C6010E94DC0E71
:100B900026CE0F900F900F900F900F90DF91CF9176
:100BA0001F910F91FF90EF90DF90CF90BF90AF908B
:100BB00008950F931F93CF93DF93EC0168817981A0
:100BC0008A810E94FC088C010E9454080E949006B1
:100BD000B801CE01DF91CF911F910F910C94850345
:100BE000CF93DF93EC018B819C81892B29F0888145
:100BF000998189238F3F59F4DF91CF910895CE01D8
:100C00000E94D905CE01DF91CF910C940E02CE0146
:100C10000E9433028111F3CF0E946A0C882361F392
:100C20008A81882349F382E0DF91CF910C94360DBD
:100C300090E080E00E94621D90E080E00E94781DBC
:100C40000E94B40C0E94C50C0E94E50C0E942B1956
:100C50000C9401180E945A0C0C9418060E94A30CC4
:100C60000C942A06282F892F82958F70903C80F44F
:100C70008A30B0F4843020F4823090F480E008951B
:100C80008630E1F781E0283E88F0213FB9F70EC0B9
:100C90008C3011F08F3091F793FB882780F90895FD
:100CA00081E0203F39F018F4283E40F70895243FB2
:100CB00029F7FCCF0895FC01808191810E94F00802
:100CC0000C943206CF93DF9300D000D00F92CDB7B3
:100CD000DEB70F900F900F900F900F90DF91CF9194
:100CE0000895CF93DF9300D000D000D0CDB7DEB70A
:100CF00026960FB6F894DEBF0FBECDBFDF91CF9121
:100D0000089508950C9481060E9482066093D8018C
:100D10007093D9018093DA019093DB010C9418064B
:100D200008950C948406CF93DF9300D000D0CDB704
:100D3000DEB769837A838B839C838091D8019091FD
:100D4000D901A091DA01B091DB0129813A814B816F
:100D50005C81282B392B4A2B5B2B29833A834B83CD
:100D60005C83CA01B9010F900F900F900F90DF9133
:100D7000CF910C948406CF93DF9300D000D0CDB7F1
:100D8000DEB769837A838B839C838091D8019091AD
:100D9000D901A091DA01B091DB0129813A814B811F
:100DA0005C81282339234A235B2329833A834B839D
:100DB0005C83CA01B9010F900F900F900F90DF91E3
:100DC000CF910C948406CF93DF9300D000D0CDB7A1
:100DD000DEB769837A838B839C838091D80190915D
:100DE000D901A091DA01B091DB0129813A814B81CF
:100DF0005C81282739274A275B2729833A834B833D
:100E00005C83CA01B9010F900F900F900F90DF9192
:100E1000CF910C9484060C9481060C940B070E94CD
:100E20000D076093D4017093D5018093D601909300
:100E3000D7010C94180660E070E0CB010C940F070A
:100E40000F931F93CF93DF9300D000D0CDB7DEB7C1
:100E500041E050E060E070E08A019B0104C0000FB7
:100E6000111F221F331F8A95D2F709831A832B8300
:100E70003C83C901B8010F900F900F900F90DF9144
:100E8000CF911F910F910C940F070F931F93CF9346
:100E9000DF9300D000D0CDB7DEB741E050E060E096
:100EA00070E004C0440F551F661F771F8A95D2F764
:100EB0008091D4019091D501A091D601B091D70134
:100EC0008A019B01082B192B2A2B3B2B09831A83A0
:100ED0002B833C83C901B8010F900F900F900F90A6
:100EE000DF91CF911F910F910C940F070F931F93D8
:100EF000CF93DF9300D000D0CDB7DEB741E050E014
:100F000060E070E004C0440F551F661F771F8A958C
:100F1000D2F740955095609570958091D40190914D
:100F2000D501A091D601B091D7018A019B01082378
:100F300019232A233B2309831A832B833C83C9016A
:100F4000B8010F900F900F900F90DF91CF911F91EC
:100F50000F910C940F070F931F93CF93DF9300D043
:100F600000D0CDB7DEB741E050E060E070E004C0F3
:100F7000440F551F661F771F8A95D2F78091D401C1
:100F80009091D501A091D601B091D7018A019B0122
:100F9000082719272A273B2709831A832B833C8399
:100FA000C901B8010F900F900F900F90DF91CF9172
:100FB0001F910F910C940F07CF93DF9300D000D0B7
:100FC000CDB7DEB769837A838B839C838091D4010C
:100FD0009091D501A091D601B091D70129813A8194
:100FE0004B815C81282B392B4A2B5B2B29833A833D
:100FF0004B835C83CA01B9010F900F900F900F9043
:10100000DF91CF910C940F07CF93DF9300D000D0E6
:10101000CDB7DEB769837A838B839C838091D401BB
:101020009091D501A091D601B091D70129813A8143
:101030004B815C81282339234A235B2329833A830C
:101040004B835C83CA01B9010F900F900F900F90F2
:10105000DF91CF910C940F07CF93DF9300D000D096
:10106000CDB7DEB769837A838B839C838091D4016B
:101070009091D501A091D601B091D70129813A81F3
:101080004B815C81282739274A275B2729833A83AC
:101090004B835C83CA01B9010F900F900F900F90A2
:1010A000DF91CF910C940F070895292F220FE22F83
:1010B000E90FEE0FE80F8E2F877041E001C0440F5B
:1010C0008A95EAF7E695E695E69585E0E89FF001D2
:1010D0001124E955FE4F30E020E070E05191DF012E
:1010E0001197CB01022E02C0969587950A94E2F7DC
:1010F000817081958527842385278C932F5F3F4FAF
:101100002530310559F70895292F220FE22FE90FD5
:10111000EE0FE80F9E2F9770E695E695E69585E031
:10112000E89FF0011124E955FE4F50E040E080E0D7
:10113000219130E0092E02C0369527950A94E2F7F6
:1011400021703327042E01C0220F0A94EAF7822B64
:101150004F5F5F4F4530510559F70895BF92CF92C9
:10116000DF92EF92FF920F931F93CF93DF938C0147
:10117000C090D401D090D501E090D601F090D70175
:101180008091D8019091D901A091DA01B091DB0151
:10119000C82AD92AEA2AFB2ACFE1D0E0BC2ED701FF
:1011A000C6010C2E04C0B695A795979587950A940D
:1011B000D2F780FD0EC0219788F7B12C8B2DDF91DF
:1011C000CF911F910F91FF90EF90DF90CF90BF9044
:1011D0000895B8018C2F0E940910019761F3EECF9A
:1011E000CF93DF93D82FC92F0E94AE086D2F7C2F8D
:1011F000DF91CF910C9409101F93CF93DF93162F9B
:10120000D72F9091A601992339F0862F972FDF9140
:10121000CF911F910C94F008882391F0862F972F7F
:101220000E94AE08C82F682F812F9D2F0E9455085D
:10123000612F7D2F8C2FDF91CF911F910C9409107E
:10124000862F972F0E948408C82FF2CFEF92FF922B
:101250000F931F93CF93DF938C01892B89F0F12C8F
:10126000EE24E394E8012196F8018491843709F48F
:1012700057C0A0F4823009F43EC048F48130D1F068
:10128000DF91CF911F910F91FF90EF9008959CEF08
:10129000980F9037A8F70E94D7020AC0853709F443
:1012A0004CC09CE7980F903758F78F770E9429031E
:1012B0008E0116C00E5F1F4FFE01849190E2980FC1
:1012C000983060F48770FE2D01C0FF0F8A95EAF711
:1012D0008F2F0E94B70C0E94E50C02C00E94D7021B
:1012E0008F2D815008F4BECFEFE9FFE03197F1F781
:1012F00000C00000F6CF0E5F1F4FFE01849190E208
:10130000980F983050F48770FE2D01C0FF0F8A951A
:10131000EAF78F2F0E94BD0CDECF0E942903E0CF99
:101320000E5F1F4FFE01C491C150D0F28FE99FE0C4
:101330000197F1F700C00000F7CF0E5F1F4FFE01CD
:10134000F490CECF1F93CF93DF93E091DC0116E0B2
:101350008091DD018E1304C0DF91CF911F9108951C
:10136000CE2FD0E01E9FF0011124E252FE4F4081AB
:10137000518162817381848195810E947106FE0191
:101380003196E770E5CF40910E0250910F026091C7
:1013900010027091110280911202909113020C942C
:1013A00071061F93CF93DF9380911302807FA9F47E
:1013B00080911002882389F08091DC01C091DD01C9
:1013C00060910E0270910F02A0911102B091120271
:1013D000D62FD72316E0C81304C0DF91CF911F91F9
:1013E000089590E0109711F0DF3F19F4019687708F
:1013F000F2CF189F9001199F300D1124F901E2528C
:10140000FE4F41814713F2CF40814613EFCF428117
:101410004111ECCF438154814A1B5B0B483C510581
:1014200028F7809113028F70806180931302F90175
:10143000ED51FE4F80818F70806180838EE092E05D
:101440000E94F005DF91CF911F910C94A209AF92F9
:10145000BF92CF92DF92EF92FF920F931F93CF93A1
:10146000DF93CDB7DEB72B970FB6F894DEBF0FBE74
:10147000CDBF8C0185E0F801DE01179601900D9239
:101480008A95E1F7F801E2808EE0C82E82E0D82E3E
:1014900060911102709112026115710509F440C149
:1014A00090910E0220910F02822F89238F3F09F421
:1014B00037C140815181A380B480F0901002F501C2
:1014C000E61BF70BFF2009F4DDC080911302382FD3
:1014D000307FE83CF10508F0AFC0311179C0FE2C37
:1014E000521323C0941321C0E1101FC08F7080617C
:1014F000809313020E94C309C6010E94F0058091E7
:101500001302F80185838F2D2B960FB6F894DEBF5A
:101510000FBECDBFDF91CF911F910F91FF90EF9044
:10152000DF90CF90BF90AF900895AB2829F0852F22
:1015300084238F3F09F00DC180E0F82FF170DF2E7A
:10154000E091DC012091DD0136E080FD1CC0EE2041
:10155000D1F280911302816080931302F12CD3CFDA
:101560008E2F90E03E9FF0011124E252FE4F6181E8
:10157000561306C06081641303C06281E612E7CF90
:10158000FC013196E770E213EBCF4F8358878F81D0
:1015900098850E94F008292F22952F70903260F0D4
:1015A000225F2F70223078F49F7051F0F8019581FE
:1015B000907F31F4D12C0AC09F7011F08823D1F3B1
:1015C000805E8830B8F3C8010E94F005FD2C9BCFE7
:1015D000521306C0941304C0F801EE2009F46DC044
:1015E000C8010E945B06882319F1EE2009F1809161
:1015F0001302803270F020910E0230910F023A8374
:1016000029831B82BD82AC828E83CE0101960E940B
:10161000F00586E0F801AEE0B2E001900D928A9507
:10162000E1F70E94D1090E94C309FF24F3946BCF14
:10163000C8010E94F005F9CF311113C07A2DBB8685
:10164000AA866E2D8B850E9462068EE092E00E9433
:10165000F00586E0F60111928A95E9F70E94C30928
:101660007DCF5213BDCF9413BBCFE110B9CFF8019A
:101670008583C8010E94F00586E0F60111928A95E3
:10168000E9F741CFE83CF10508F03DC0FE2CEE2023
:1016900079F252132AC0941328C08091130280FD5E
:1016A0001BC0982F907FC1F0F8018583903F31F0E7
:1016B000982F907F905F8F70892B8583C8010E943F
:1016C000F00586E0F801AEE0B2E001900D928A9557
:1016D000E1F70E94C30917CF86E0F801AEE0B2E05F
:1016E00001900D928A95E1F70ECFC8010E945B062A
:1016F00081118FCF80911302816080931302C80102
:101700000E94F00500CF7A2DBB86AA866E2D8B85B0
:101710000E94620686E0F60111928A95E9F7D9CF18
:10172000EE2009F485CFC8010E945B06F82E8823BD
:1017300009F47ECF86E0F801AEE0B2E001900D92B0
:101740008A95E1F78EE092E00E94D2020E94D109D0
:10175000C0CF81E08E25F1CE1F93CF93DF93CDB71D
:10176000DEB72C970FB6F894DEBF0FBECDBF4F8308
:10177000588769877A878B879C87CE0107960E9456
:10178000270A882369F08A859B85892B39F04F8148
:101790005885842F85238F3F09F077C016E065C0F8
:1017A00086E0FE013796DE01119601900D928A9532
:1017B000E1F76A857B856115710581F35F81488555
:1017C000842F85238F3F51F32091DD0130E0C90143
:1017D000019687709927E091DC01E817190671F4EA
:1017E0000E942E061092DD011092DC0186E0EEE0F0
:1017F000F2E0DF011D928A95E9F7D0CF59834A8341
:101800007D836C8396E0929FD001939FB00D11244D
:10181000A252BE4FFE01319601900D929A95E1F7CA
:101820008093DD010E94A209B9CF819FC0011124DC
:1018300082529E4F0E94270A8823E9F0E091DC0142
:101840001E9FF0011124E252FE4F408151816281BE
:101850007381848195810E9471068091DC0190E002
:101860000196877099278093DC018091DC0190912B
:10187000DD018913DACF2C960FB6F894DEBF0FBEC8
:10188000CDBFDF91CF911F91089569857A858B85B2
:101890009C850E94710682CF682F809100019091F3
:1018A00001010C94DA1D682F8091000190910101D3
:1018B0000C94DC1D80910001909101010C94DE1DBF
:1018C00080911402859585958595089580911402DF
:1018D0008770089590911402977081E009F480E078
:1018E00008959091860292FB222720F9281751F043
:1018F00080FB92F9909386028091850290918602F6
:101900000C94790D08958091860282FB882780F9D6
:1019100091E089270C94710C81E00C94710C80E0AB
:101920000C94710C80912002089590912002982BC4
:10193000909320020895982F9095809120028923FA
:1019400080932002089510922002089590911F0222
:10195000982B90931F020895982F909580911F02C5
:10196000892380931F02089510921F020895909179
:101970001E02982B90931E020895982F90958091A7
:101980001E02892380931E02089510921E0208955C
:1019900080911502089508950C94CB0C90918602C5
:1019A00092FD08C090911502981721F080931502BE
:1019B0000C94CC0C089580911502882329F0109284
:1019C000150280E00C94CC0C0895E0910001F09198
:1019D0000101809120028083E0910001F0910101DA
:1019E000808190911F02892B8083E0910001F0910A
:1019F0000101808190911E02892B808390911502B4
:101A0000992381F0E0910001F09101018081892BFF
:101A1000808380910001909101010E948E1D8111AF
:101A20000E94DB0C80910001909101010C94481DF3
:101A300008950C94180D9091860292FD10C098E0C4
:101A4000899F90011124622B609314020E94450724
:101A5000809114028595859585950C94190D0C94AB
:101A600045071092140280E00C94190D9091140215
:101A70008095892380931402282F277039F4282F0A
:101A8000082E000C330B9217130621F49091860256
:101A900092FF07C08595859585950E9476070C94E1
:101AA000310D08956FEF7FEF90E080E00C94962663
:101AB00090E080E00E9472269C0181E0293E3E4F2A
:101AC00009F080E0089582E090E00C946A2683E0BB
:101AD00090E00C946A26CF9384E090E00E946A26FE
:101AE000C82F82E290E00E946A26982F8C2FCF9117
:101AF0000895CF93682FC92F84E090E00E94782644
:101B00006C2F82E290E0CF910C947826AB01BC015F
:101B10008FE090E00C948A26AB01BC0183E190E059
:101B20000C948A2660E070E0CB010C948C0D60E090
:101B300070E0CB010E94860D0C94920D69EE7EEF51
:101B400090E080E00E94962660E082E090E00E94B3
:101B5000782660E083E090E00E9478261092D80119
:101B60001092D9011092DA011092DB0160E084E05A
:101B700090E00E94782660E082E290E00E94782661
:101B800060E085E090E00E94782660E086E090E0EA
:101B90000E9478266FEF87E090E00E94782640E070
:101BA00050E0BA0188E090E00E948A2660E08DE073
:101BB00090E00E94782640E050E0BA0188E190E091
:101BC0000E948A2660E087E190E00E94782640E04B
:101BD00050E0BA018CE190E00E948A2670E060E05B
:101BE00080E290E00E94962640E050E0BA0188E151
:101BF00090E00E948A260C94970D0C949E0D682FFD
:101C00008EE090E00C9478260E94D81E60933202F9
:101C100070933302809334029093350260932E02C6
:101C200070932F028093300290933102089585B70C
:101C3000806885BF85B7806885BF08950895089539
:101C40000C941E0E08950C94220E0E94170E88EE1E
:101C500090E10E94761F0E941F0E0C94200E0C949F
:101C60000113089508950E94310E0C94320E0E94C3
:101C7000C31E0E94E61D0E94F2110E9439190C94A5
:101C8000230EAF92BF92CF92DF92EF92FF920F930B
:101C90001F93CF93DF9300D000D00F92CDB7DEB764
:101CA0000E94771281110E94040E82E2A82E82E027
:101CB000B82E10E000E0C02E802F0E944111F82EB7
:101CC000F501E1905F01E81609F44CC080913602FD
:101CD00081FD0E9447118E2D8F25D12CEE24E39497
:101CE000982F9E21D1F10E942F0E882399F0D9823E
:101CF000CA82FE2081E009F480E08B830E94CC1E22
:101D00008160782F9D838C8349815A816B818D817D
:101D10000E949502F801EE5DFD4F8081E826E08289
:101D20000E941B180E94351D90912102891789F18C
:101D30000E94351D809321020F900F900F900F90FD
:101D40000F90DF91CF911F910F91FF90EF90DF9057
:101D5000CF90BF90AF900C948D02D394EE0CF6E030
:101D6000DF12BECF0F5F1F4F0C30110509F0A3CF5C
:101D70008FEF89838A831B820E94CC1E8160782F1B
:101D80009D838C8349815A816B818D810E9495024C
:101D9000C7CF0F900F900F900F900F90DF91CF91C2
:101DA0001F910F91FF90EF90DF90CF90BF90AF9079
:101DB000089590E080E008950895972F70E026E060
:101DC000929F600D711D1124FB0198E4899FE00D25
:101DD000F11D1124EE0FFF1FE455FF4F85919491E3
:101DE0000895FC01EE0FFF1FE453FE4F859194917F
:101DF0000895CF93DF930E940D10EC01811520E52B
:101E0000920708F04BC0811530E4930708F0B2C088
:101E1000803E910518F5803C910508F09FC0883AF6
:101E2000910570F4853A910508F095C081309105CF
:101E300029F10497813A910508F1D0E0C0E01EC075
:101E40008F3B9105D1F3C85AD0E0CC0FDD1FCE599E
:101E5000DE4F0990D881C02DD46410C0811540E2B6
:101E6000940780F48F3F910509F040F4883E910576
:101E700028F08D5E9109D0654397F8F6CE01DF9189
:101E8000CF910895C11580E3D80708F46DC0CE0145
:101E90009927D3FD6CC0EC01D06CF0CFC11595E54E
:101EA000D90760F5C11524E5D20708F094C0C11523
:101EB00033E5D30778F4C11542E5D40708F07AC0BA
:101EC000C11581E5D80708F458C0DC2FCC27C16FB5
:101ED000D06AD4CFCE018370992721E030E002C0D0
:101EE000220F331F8A95E2F7C695C69590E2C99FE7
:101EF000E0011124C22BD32BDA68C0CFC1152AE52B
:101F0000D207B0F4C11539E5D30708F074C0C11584
:101F100046E5D40708F464C0CE0198558F3F91057B
:101F200011F008F08ACFDC2FCC27C06FD06AA6CF83
:101F3000CE0190568115904208F07FCF8D2F8F7182
:101F40000E94A51090E0982F882788279F719C01F8
:101F50002C2BE9014EC0A497D06490CF805C9109EE
:101F60000E94F10EEC018ACFCE019F70F9CFEC01F7
:101F7000D86C84CFDF70D06A81CFCE0174E09695A3
:101F800087957A95E1F783702C2F269526952370F7
:101F900040E2249F90011124382B8C2F8370C1E0E4
:101FA000D0E002C0CC0FDD1F8A95E2F7C22BD32B05
:101FB000DC6864CFCE018370992721E030E002C055
:101FC000220F331F8A95E2F7C695C69580E2C89F17
:101FD000E0011124EBCFDC2FCC27C46FD06A4ECFA9
:101FE0008C2F0E94A510C82FD0E0DC2FCC27CC2747
:101FF000DF71D06243CF8C2F8F700E94A51034E028
:10200000D695C7953A95E1F7CF70DC2FC82FD069E8
:1020100035CF0E94DD0E0C94F90E803E910599F1AA
:10202000C8F48133910509F476C048F489329105EA
:1020300009F46AC08A32910509F474C0089589339D
:102040009105D1F082389105B9F08533910509F4F5
:1020500054C00895843E910599F138F4823E91056B
:10206000F9F0833E910509F10895863E910599F1B5
:10207000873E9105B9F10895209185022370A1F062
:1020800080EE90E008952091850220FD52C03091AD
:10209000860230FF09C024FF4FC090E080E004C0FA
:1020A0002091850222FDF7CF08952091850222FD1F
:1020B00046C03091860230FDE3CF24FFF5CFEDCF4F
:1020C0002091860221FFF0CF8091850284FDE5CF2B
:1020D00087EE90E008952091850223FFE5CF24FD4F
:1020E000DCCFF6CF2091850223FD2CC030918602F3
:1020F00031FFE3CF84EE90E008952091850225FF23
:10210000D3CF89E290E008952091850225FFCCCFBE
:1021100085E390E008952091850226FFC5CF8AE2ED
:1021200090E008952091850226FFBECF81E390E0E4
:10213000089589E390E0089583EE90E0089582EE9B
:1021400090E0089586EE90E008959091850292FFC8
:1021500006C0282F28712830F9F4877F846093FF08
:1021600006C0282F28712831F1F4877E84612091E0
:10217000860220FF06C0382F38713830D9F4877FA7
:10218000816021FF06C0282F28712831D1F4877E75
:10219000816194FD877E0895282F24712430F9F6FB
:1021A0008B7F8860DCCF282F2471243101F78B7E50
:1021B0008861DDCF382F3171313019F78E7F88601B
:1021C000E0CF282F2171213121F78E7E8861E1CF68
:1021D00080E008950C94520D0E9477122FEF86E74D
:1021E00091E0215080409040E1F700C000000E9443
:1021F000771280E00E94411180FF04C00E94EA1023
:102200000C94521F08950C94EC10CF93DF9300D0E0
:1022100000D0CDB7DEB70E94580D811102C00E94D8
:10222000FD0D0E94630D809336020E946B0D90930A
:102230008602809385020E9403110E94670D282F59
:1022400030E050E040E0CA01B9010E94910680915F
:10225000D4019091D501A091D601B091D701898385
:102260009A83AB83BC83BC01CD010F900F900F907C
:102270000F90DF91CF910C940D07089508950C9461
:102280003E11E82FF0E0ED56FD4F8081089508954E
:1022900080EA8A95F1F7089500C008950C944811DA
:1022A000F894E82FE295EF70F0E041A18F7021E003
:1022B00030E0B90102C0660F771F8A95E2F7CB01C3
:1022C000962F9095942391A392A1892B82A3789421
:1022D000089508950C946911CF93DF93C6E9D1E076
:1022E00089918F3F11F00E94501181E0CC39D807BD
:1022F000B9F7C0E9D1E089918F3F11F00E945011E8
:1023000081E0C639D807B9F7DF91CF910895CF9210
:10231000DF92EF92FF920F931F93CF93DF93EC0125
:10232000D62E062F10E0C8018A569E4F7C01FC0174
:1023300020812F3F09F44BC0F894E22FE295EF7013
:10234000F0E031A12F7081E090E001C0880F2A9564
:10235000EAF7932F982B91A392A18095892382A3CA
:1023600078940E944C11E0E9F1E030E020E0C12CCB
:1023700051E041914F3FA1F1A42FA295AF70B0E081
:1023800090968C9190E04F7002C0959587954A95F4
:10239000E2F780FD25C0852F022E01C0880F0A9428
:1023A000EAF7C82A2F5F3F4F2630310511F7F701B2
:1023B00080818F3F11F00E94501161E0C11001C077
:1023C00060E08D2D0E944E11C00FD11FC882DF9199
:1023D000CF911F910F91FF90EF90DF90CF900895D4
:1023E00080E0DFCF0E941E138091020180910201E4
:1023F00096E0811190E09093A00286E0891B809383
:102400009F020E946C11E7E8F2E0A3E9B2E01192AA
:102410001D9282E0E339F807D1F786E00E94CA12E4
:102420000E941B020C9428131F93CF93DF9300D0BC
:1024300000D000D0CDB7DEB70E940113182F6091F5
:10244000A002882309F446C01A821982FE0133963D
:1024500084E0DF011D928A95E9F7862F90E0BE01A6
:102460006F5F7F4F8D569D4F0E943613E0919F0204
:102470009E01295F3F4FF0E0882311F1BF016D56A7
:102480007D4FDE01119610E0FB014191BF019D914E
:10249000491731F0AF0141505109FA019083182FCB
:1024A000A217B30789F70E942102812F26960FB643
:1024B000F894DEBF0FBECDBFDF91CF911F9108957D
:1024C000ED56FD4FDE01119611921D92A217B30732
:1024D000D9F7E9CF70E06D567D4F80919F0290E073
:1024E0008D569D4F0E94CC130E946A11DECF0F9330
:1024F0001F93CF93DF93CDB7DEB72C970FB6F89429
:10250000DEBF0FBECDBF1A821982FE0133968AE06C
:10251000DF011D928A95E9F710E0612FCE01019647
:102520000E9487111F5F1630C1F74CE050E0BE01DA
:102530006F5F7F4F87E892E00E9454268C0121E074
:10254000892B09F420E00115110549F08CE0FE010A
:102550003196A7E8B2E001900D928A95E1F760917B
:10256000A00270E06D567D4F46E087E892E00E9441
:10257000CB1281E090E0012B11F40E9414122C96F2
:102580000FB6F894DEBF0FBECDBFDF91CF911F9184
:102590000F9108950895FF920F931F93CF93DF93A8
:1025A000F82E092F162FD72FC42F222349F081E0B0
:1025B000809339020E94CC1E909338028093370298
:1025C000809139028823A1F08091370290913802DE
:1025D0000E94F81E059760F0EF2DF02FA12FBD2F60
:1025E000CE0FDF2FD11DEC17FD0741F410923902F9
:1025F000DF91CF911F910F91FF90089581918D935D
:10260000F2CF80913C02811107C00E9419268823D5
:1026100051F081E080933C0281E090913C02913046
:1026200009F080E0089582E080933C020E94142625
:10263000F3CF0E94011391E0892708950E94191396
:10264000809302010E94011381110C946E1308956E
:102650000E940113811102C00C947013089581E04F
:1026600090913D029A3008F080E008950F931F93F7
:10267000CF93DF93EC01162F072F80913D028A3014
:10268000C0F4612F702FCE010E94CA13C82F811190
:1026900022C080913D028F3FB9F40E94CC1E9093DE
:1026A0003B0280933A028C2FDF91CF911F910F91C3
:1026B000089580913A0290913B020E94F81E843F57
:1026C0009140F8F6C0E0EFCF8F5F80933D028A30F3
:1026D00020F7C1E0E8CF10923D02E5CF0C946E1BCD
:1026E0000C94711BCF92DF92EF92FF920F931F9386
:1026F000CF93DF93FA0169017801C82F880FDD0BB2
:102700003097B9F08AE08C9FD0018D9FB00D1124D5
:10271000AD5FBE4F13968D919C911497825C9D4F37
:1027200012964C9150E0E417F50708F4AF010E94AF
:102730006126CE010E947C1C892B11F5E114F10465
:10274000E9F08AE08C9FF0018D9FF00D1124ED5F80
:10275000FE4F458150E0E416F50608F4A7018AE033
:102760008C9FF0018D9FF00D1124ED5FFE4F66816F
:102770007781625C7D4FC6010E94612681E001C0C5
:1027800080E0DF91CF911F910F91FF90EF90DF904C
:10279000CF9008950C94FB140C9419150F931F936C
:1027A000CF93DF93CDB7DEB728970FB6F894DEBF8F
:1027B0000FBECDBF8091570290915802A09159024F
:1027C000B0915A02BC01CD010E94071F11E064368E
:1027D00071058105910520F10E94181EDC01CB01D5
:1027E0000296A11DB11D89839A83AB83BC8310E03F
:1027F00000E030E020E044E050E0BE016F5F7F4F3A
:1028000082E00E947213182F882351F00E94D81E74
:1028100060935702709358028093590290935A0222
:10282000812F28960FB6F894DEBF0FBECDBFDF9183
:10283000CF911F910F910895AF92BF92CF92DF92E7
:10284000EF92FF920F931F93CF93DF93CDB7DEB735
:102850002B970FB6F894DEBF0FBECDBF7B01A090C3
:10286000A201B090A30101E010E09E01295F3F4F5B
:1028700050E040E070E060E080E00E947213182FAA
:10288000882309F44EC065018FEFC81AD80A8091D9
:10289000530290915402A0915502B0915602BC018E
:1028A000CD010E94071F688779878A879B876436D6
:1028B00071058105910568F106E010E09E012F5F2A
:1028C0003F4F50E040E070E060E081E00E94721312
:1028D000082F66E070E0C6010E943A1911E09F815E
:1028E000981310E0102341F10E94D81E6093530208
:1028F00070935402809355029093560286E0FE0135
:102900003196ADE4B2E001900D928A95E1F711E0C5
:1029100013C066E070E0C6010E943A199F818913D6
:10292000CBCF86E0F5013196DE01119601900D9234
:102930008A95E1F71111E2CF86E0EDE4F2E0D701EC
:1029400001900D928A95E1F7812F2B960FB6F8949E
:10295000DEBF0FBECDBFDF91CF911F910F91FF90D2
:10296000EF90DF90CF90BF90AF900895AF92BF925D
:10297000CF92DF92EF92FF920F931F93CF93DF934B
:10298000F82EE92ED62EC72E8A010E942F13AA24D4
:10299000A394B12C882319F08AE0A82EB12CC1E0B1
:1029A000D0E0F8946D2D7C2D8F2D9E2DF80109958A
:1029B0007894811104C02196AC16BD065CF4DF91B9
:1029C000CF911F910F91FF90EF90DF90CF90BF902C
:1029D000AF900895CC9F9001CD9F300D300D112404
:1029E00090E080E045E34A95F1F7000001968217F8
:1029F0009307C1F7D6CF0F931F93CF93DF93D82FB1
:102A0000C92F8B014CE154E10E94B614882359F080
:102A10004EEC53E1B8018D2F9C2FDF91CF911F9188
:102A20000F910C94B61480E0DF91CF911F910F911C
:102A300008950F931F93CF93DF93FB01F894C091F8
:102A4000A201D091A301CE01019626E0DC01019004
:102A50000D922A95E1F766E070E00E943A198883AA
:102A60007894F8946F81788589859A8500914902D8
:102A700010914A0220914B0230914C02601771076D
:102A80008207930751F06093490270934A02809342
:102A90004B0290934C020E94EF1D7894DF91CF91EE
:102AA0001F910F9108950E94491E0E94D4200E94F8
:102AB000ED200E94FF200E94330EFBCF0F931F9347
:102AC000CF93DF9300D000D0CDB7DEB741E050E028
:102AD00060E070E08A019B0104C0000F111F221FFB
:102AE000331F8A95D2F709831A832B833C83C9014C
:102AF000B8010E9491060F900F900F900F90DF91F8
:102B0000CF911F910F910C942E068B3258F4853083
:102B1000C0F0EBEFE80FE632A0F4F0E0E254F94D3C
:102B20000C943A26833450F48A3308F051C085332C
:102B300009F44AC0883329F481E00895833409F404
:102B400043C080E008950E94FD0DF6CF80913602CB
:102B5000807F8093360281E080935E0208950E9418
:102B60002402EACF90913602892F8E7F90FF8160F8
:102B70008093360280FDE0CF817F80933602DCCFE8
:102B800090913602892F8D7F91FF8260809336026B
:102B900081FFD2CF809136028160EFCF90913602D3
:102BA000892F8B7F92FF84608093360282FDF2CF63
:102BB000C3CF90913602892F877F93FF88608093DF
:102BC000360283FDE7CFB8CF80E00E945E15B4CF18
:102BD0008953FBCF8D51F9CF80E008950C94EC150B
:102BE000CF93C82F80915E028130A1F08230A1F195
:102BF0008111ADC00E94920C823209F0AAC08C2FC4
:102C00000E94EC1581111BC08C2F0E9485158170CC
:102C1000CF9108950E94920C823289F38C2F0E94EA
:102C2000EE1581110AC0C431A1F060F4CB3029F057
:102C3000C03169F782E080935E0281E0E8CF81E0F5
:102C400090E0E5CFC93229F081E0C83301F380E09C
:102C5000DECF10925E02FBCFCF3409F470C0C0F417
:102C6000C83248F4CE3188F5C73009F455C0C431B4
:102C700021F081E0CDCFC932E1F780915D02882358
:102C8000C1F310925D0210925C0210925B02F1CFD0
:102C9000C13509F456C081E0C23519F086EFC03560
:102CA00041F7E0915B02F0915C02309711F32081D3
:102CB000082E000C990B820F911D8F3F910509F092
:102CC0000CF441C08FEF8083D4CFCD51C0935D020F
:102CD000C430E1F068F4C230B1F086E291E0C33074
:102CE00069F088E291E0C13049F010925D02C1CFF5
:102CF000C53079F081E291E0C630B9F790935C027B
:102D000080935B02B6CF87E291E0F8CF85E291E055
:102D1000F5CF82E291E0F2CF8EE18093280182E349
:102D2000809327018AE08093260184E18093250126
:102D300088E08093220188E2809321019ACF8AE083
:102D4000B0CF8FEFAECF97FFBECF108292CF109251
:102D50005E0280E05DCF8091650280FF12C06091CD
:102D6000260185E0689FB0011124759567957595DA
:102D7000679560387105A8F561157105A1F1862F79
:102D8000089581FF09C06091260185E0689FB00128
:102D9000112475956795EDCF6091260182FD0AC0DB
:102DA000809164028823D1F09091250160912601E1
:102DB000891728F085E0689FB0011124DACF869F3B
:102DC000B001112485E0869F9001879F300D11246A
:102DD000692F70E0C9010E942626CBCF65E070E024
:102DE000CECF8FE7089581E008958091650280FF3E
:102DF0000CC06091220170E0759567957595679597
:102E00006115710549F1862F089581FF06C0609113
:102E1000220170E075956795F3CF6091220182FDE4
:102E20000BC0909163029923A1F0609121018091E0
:102E30002201961738F0682F70E06038710500F3B2
:102E40008FE70895899FC001112470E00E94262613
:102E5000F4CF61E070E0D7CF81E008958D3E31F48A
:102E60000E94AB1681958093690208958E3E19F4F5
:102E70000E94AB16F8CF8F3E31F40E94AB168195BD
:102E8000809368020895803F19F40E94AB16F8CF32
:102E9000893F29F40E94F51680936A0208958A3FBB
:102EA00021F40E94F5168195F7CF8B3F31F40E94F3
:102EB000F516819580936B0208958C3F19F40E945A
:102EC000F516F8CF9FE0980F983070F4815F990B5A
:102ED00021E030E001C0220F8A95EAF78091670275
:102EE000822B8093670208958D3F31F480916502B3
:102EF00081608093650208958E3F21F48091650280
:102F00008260F7CF8F3FB9F7809165028460F1CF7F
:102F1000409168028D3E59F48091690287FF0DC08F
:102F20001092690241110BC01092640208C08E3EDB
:102F300081F48091690218169CF3442381F08091FA
:102F40006A0290916B02892B09F05AC010926302B9
:102F500008958F3E49F447FFF0CF109268028091A8
:102F600069028111ECCFE0CF803F19F41416ACF365
:102F7000E4CF90916A02893F29F41916F4F6109271
:102F80006A02DBCF8A3F19F497FFD7CFF8CF909131
:102F90006B028B3F29F497FFD0CF10926B02CDCFFD
:102FA0008C3F19F41916CCF3C8CF9FE0980F9830D6
:102FB00090F4815F990B21E030E0B90102C0660F07
:102FC000771F8A95E2F7CB0180959091670289235C
:102FD00080936702B2CF8D3F31F4809165028E7F7E
:102FE00080936502AACF8E3F21F4809165028D7F88
:102FF000F7CF8F3F09F0A1CF809165028B7FF0CF93
:1030000008950E94CC1E2091680230916902232B02
:1030100021F0809361029093620220916A023091C4
:103020006B02232B21F080935F029093600286E66F
:1030300092E00C94531DEF92FF920F931F93CF9346
:10304000DF9300D000D000D0CDB7DEB786E0E6E653
:10305000F2E0DE01119601900D928A95E1F7E09081
:103060006802F090690200916A0210916B0210925E
:1030700068021092690210926A0210926B028F2D00
:103080008E2991F080916102909162020E94F81E57
:103090009C0180916402882309F443C09091270128
:1030A0009217130608F44BC0802F812B91F080916A
:1030B0005F02909160020E94F81E9C018091630261
:1030C000882309F47BC0909123019217130608F41A
:1030D00083C08091680290916902892B90916A0265
:1030E000892B90916B02892B11F00E940118EB82C1
:1030F000FC820D831E8386E0FE013196A6E6B2E0D7
:1031000001900D928A95E1F726960FB6F894DEBFEE
:103110000FBECDBFDF91CF911F910F91FF90EF9028
:103120000895409128019AE0499FA0011124421777
:10313000530708F0B9CF8F5F8093640202C08F3FBE
:10314000D1F7EE2059F00E94AB169FEF1E140CF43D
:1031500091E0899F802D112480936802FF2059F00F
:103160000E94AB169FEF1F140CF491E0899F802DF5
:1031700011248093690230916802332309F494CFBB
:1031800020916902222309F48FCF45EB3403C0015B
:103190001124992359F09093680245EB2403900180
:1031A0001124332339F0309369027ECF81E080937C
:1031B0006802F3CF81E08093690276CF40912401C9
:1031C0009AE0499FA00111244217530708F081CFCC
:1031D0008F5F8093630202C08F3FD1F7002359F0C5
:1031E0000E94F5169FEF10160CF491E0899F802D38
:1031F000112480936A02112359F00E94F5169FEF63
:1032000011160CF491E0899F802D112480936B029C
:1032100030916A02332309F45CCF20916B022223A0
:1032200009F457CF45EB3403C0011124992359F019
:1032300090936A0245EB240390011124332339F063
:1032400030936B0246CF81E080936A02F3CF81E036
:1032500080936B023ECF86E0E6E6F2E0DF011D924E
:103260008A95E9F710926402109263021092650247
:1032700008950895FC01680F791F8FEF91E36E1791
:103280007F0709F408952191822728E030E087FF25
:1032900006C0880F892721503109C9F7F0CF880F60
:1032A000FACF0F931F93CF93DF93C42FD22FFC013C
:1032B00082818823C9F040936E020E94CC1E9093B5
:1032C0006D0280936C0280E28C0F883008F050C051
:1032D000C77081E001C0880FCA95EAF7DF91CF91EE
:1032E0001F910F910C94770310916E02141335C047
:1032F00080916C0290916D020E94F81E883C9105AD
:1033000060F5C0E2CD0F1D17B9F080E2810F883063
:1033100040F4177081E001C0880F1A95EAF70E9407
:103320007E03C83048F481E09D2F977001C0880F5C
:103330009A95EAF70E947703802F0E946F03C830A6
:10334000B8F4D77081E001C0880FDA95EAF7DF9111
:10335000CF911F910F910C947E0380E28C0F8830E7
:1033600038F4C77081E001C0880FCA95EAF7EFCF43
:10337000DF91CF911F910F9108950F939C01CB0185
:10338000243F4CE53407A1F190F4293DFCE53F07CB
:1033900049F12A3D4CE53407E9F1283D3C45C1F0AF
:1033A000FC0182818823E1F110926E0219C0263F50
:1033B000FCE53F0719F1273F4CE5340729F1253F8C
:1033C0003C4571F707E225EE44EE65EF7CE505C06C
:1033D00006E221EE41EE68ED7CE50E94511980E0A5
:1033E0000F91089507E225EE45EE69ED7CE5F5CFF6
:1033F00006E221EE40EE64EF7CE5EFCF06E221EE3F
:1034000042EE66EF7CE5E9CF07E225EE46EE67EF98
:103410007CE5E3CF08E221E045EE6AED7CE5DDCF17
:1034200081E0DECFCF93DF93EC01FB018281882323
:1034300009F4C9C0C631FCE5DF07E0F4C2309CE501
:10344000D907F0F00E946B0D90938602809385025D
:10345000C631ECE5DE0720F5C230FCE5DF0798F465
:1034600080918502909186020E94790D0E942E061D
:1034700080E006C09E012B5F3C452930310510F3EA
:10348000DF91CF910895FE01E350FC4580918502C4
:103490008160E331F10588F4EC51F94D0C943A2642
:1034A000CB5FDC45C930D105D8F6C950D94DFE01F6
:1034B0000C943A2680918502826080938502D0CF59
:1034C000809185028460F9CF809185028860F5CF74
:1034D00080918602816080938602C2CF80918602AD
:1034E0008260F9CF809185028061E7CF809185026B
:1034F0008062E3CF809185028064DFCF0E942E0638
:10350000809185028068D9CF809185028C60D5CF6B
:10351000809186028360DFCF809185028E7FCDCF40
:10352000809185028D7FC9CF809185028B7FC5CF29
:1035300080918502877FC1CF809186028E7FCBCF1D
:10354000809186028D7FC7CF809185028F7EB5CF17
:10355000809185028F7DB1CF809185028F7BADCF29
:103560000E942E06809185028F77A7CF80918502D9
:10357000837FA3CF809186028C7FADCF809185021F
:1035800082FB992790F921E0922790FB82F990FB2A
:1035900083F993CF80918602982F909591708E7FBA
:1035A000892B90FB81F997CF0E942E06909185027E
:1035B000892F97FB87F9805880CF81E00E94FF0D0B
:1035C0004FCF80E0FBCF81E05BCFCF93DF93EB0168
:1035D00086319C4511F50E94920C9A81992399F0AD
:1035E0008A7A91E009F490E090936F02811109C00A
:1035F00089E20E944C0C0E94E50C80E0DF91CF91A3
:10360000089585E3F6CF80916F02811104C089E2AD
:103610000E94530CF0CF85E3FBCF81E0EFCF8EE12A
:10362000489B02C08150E1F7489BFECF089558980F
:1036300080E28A95F1F7589A0895FC013BE03A95AB
:10364000F1F798E020E080E031E040E14A95F1F7C1
:10365000880F489B02C08160232742E04A95F1F71A
:10366000000040E14A95F1F7915079F790E19A9581
:10367000F1F799B132E03A95F1F7000040E14A954F
:10368000F1F7917092272081920F90830895EF9225
:10369000FF920F931F93CF93DF930F92CDB7DEB7B7
:1036A00019828C017C01E60EF11C0E151F0561F4D8
:1036B00081E09981911180E00F90DF91CF911F916E
:1036C0000F91FF90EF9008950E940F1BCE0101967D
:1036D0000E941D1BF80181938F01E7CF509A589AE1
:1036E00008955098589AE89AE9E6F0E080818C7F36
:1036F000808308956150770B91E001C0990F6A951E
:10370000EAF720E031E0911108C0222391F0589AA5
:1037100080E28A95F1F758980895492F482339F0A7
:10372000589A232740E24A95F1F79695ECCF58989E
:10373000F9CF5898EDCFFF920F931F93CF93DF935C
:10374000EC018C01060F111DC017D10731F4DF9178
:10375000CF911F910F91FF900895F9900E94171B30
:1037600068E08F2D0E947A1BEFCF1F920F920FB649
:103770000F921124EF92FF920F931F932F933F9379
:103780004F935F936F937F938F939F93AF93BF9369
:10379000EF93FF93CF93DF930F92CDB7DEB71982EC
:1037A0000E940F1BCE0101960E941D1B282FA82FDF
:1037B000A695A695A695982F929595708A2F8570B7
:1037C000980F892F837096959695890F8227877019
:1037D0009981892B09F075C0A43008F072C080E18E
:1037E0008A95F1F7589A509AB2E0BA95F1F700C06D
:1037F000EA2EF12C5898EAE0AE9FD0011124AD5F7B
:10380000BE4F1896ED91FC9119973097B1F06091E9
:10381000A2017091A30116962D913C911797260F46
:10382000371F13968D919C911497680F791F1596E9
:103830004C91159712968C9109958AE08E9DF00116
:103840008F9DF00D1124ED5FFE4F6581662351F0D1
:103850002091A2013091A30186819781820F931F4D
:103860000E949B1B0E94171BF0E1FA95F1F75898F4
:103870005098589A80E18A95F1F78AE08E9D8001F0
:103880008F9D100D11240D5F1E4FD80112966C9163
:103890001297662371F12091A2013091A301139632
:1038A0008D919C91820F931F0E94471BD801ED912F
:1038B000FC91882311F088E001C082E080830E949F
:1038C0000F1B0F90DF91CF91FF91EF91BF91AF91BF
:1038D0009F918F917F916F915F914F913F912F9128
:1038E0001F910F91FF90EF900F900FBE0F901F90C0
:1038F0001895ED91FC91DFCF0F931F93CF93DF933A
:10390000EC0104970CF0A9C08AE08C9FF0018D9F18
:10391000F00D1124ED5FFE4F80819181892B09F418
:103920009CC0F894509A589885E08A95F1F7000069
:103930008C2F869585709C2F9570890F982F93708A
:1039400086958695890F8E0193E0000F111F9A9539
:10395000E1F7082B0E94171B00C068E0802F0E942F
:103960007A1BA0E1AA95F1F75098589A489B27C076
:1039700087E090E0489925C08AE08C9F80018D9F68
:10398000100D11240D5F1E4FF80165816623A1F112
:103990002091A2013091A30186819781820F931F0C
:1039A0000E94471B811128C0509A589AD801ED9166
:1039B000FC9182E08083789482E090E016C000C0A1
:1039C000D5CF0197B9F4509A589A8AE08C9FF001AC
:1039D0008D9FF00D1124ED5FFE4F0190F081E02DE1
:1039E00081E08083789481E090E0DF91CF911F9116
:1039F0000F91089500C0BECF0E940F1BB0E2BA9590
:103A0000F1F75898509AE0E1EA95F1F78AE08C9F37
:103A1000F0018D9FF00D1124ED5FFE4F6281662352
:103A200051F02091A2013091A30183819481820FF2
:103A3000931F0E949B1B0E94171B8AE08C9FF00122
:103A40008D9FF00D1124ED5FFE4F0190F081E02D70
:103A50001082789490E080E0C8CF84E090E0C5CFF9
:103A6000909376028093750208950E94011381114C
:103A700003C0809170020895E0917502F091760282
:103A8000309721F00190F081E02D099480E00895B5
:103A9000E0917502F0917602309721F00280F38177
:103AA000E02D09940895DC01E0917502F091760211
:103AB000309739F082E08C930480F581E02DCD01C0
:103AC00009940895209173023091740228173907E0
:103AD00071F09093740280937302E0917502F091FB
:103AE0007602309721F00680F781E02D0994089541
:103AF00020917102309172022817390771F090936A
:103B0000720280937102E0917502F0917602309713
:103B100021F00084F185E02D09940895AC019C0109
:103B20002E5F3F4F485F5F4F80E02417350709F451
:103B30000895F90191919F019923B9F38F5FF5CF12
:103B40009C01662351F0FC013296285F3F4F819122
:103B5000861729F0E217F307D1F780E0089581E096
:103B600008959C01FC0132968FEF90E04191461739
:103B700051F08F3F19F4411101C0892F9F5F96309A
:103B8000A9F78F3F09F40895280F311D87FD3A9555
:103B9000F901628308959C01FC013296285F3F4F32
:103BA0008191861303C0DF0111971C92E217F3077E
:103BB000B9F708950C94B11D0C94CB1DFC013296FD
:103BC00086E0DF011D928A95E9F708951092A2021E
:103BD0001092A3021092A4021092A5020895CF920F
:103BE000DF92EF92FF92CF93DF9300D000D0CDB75A
:103BF000DEB76B017C010E94011381110EC00E948F
:103C0000D81EC61AD70AE80AF90AC092A202D092B0
:103C1000A302E092A402F092A5020F900F900F90E1
:103C20000F90DF91CF91FF90EF90DF90CF900895AC
:103C3000CF93DF9300D000D0CDB7DEB70E94011341
:103C4000882341F00F900F900F900F90DF91CF914C
:103C50000C94D81E0E94D81E69837A838B839C8320
:103C60008091A2029091A302A091A402B091A5021A
:103C700029813A814B815C81280F391F4A1F5B1FC4
:103C8000CA01B9010F900F900F900F90DF91CF9163
:103C900008950895089508950C944B1E8091AE02E6
:103CA000843049F10E944C1E80E00E948D021092E7
:103CB000770288E190E020E40FB6F894A89580930D
:103CC00060000FBE2093600083B7817F846083BF54
:103CD00083B7816083BF7894889583B78E7F83BFD5
:103CE0000FB6F894A8958091600088618093600079
:103CF000109260000FBE08950895CF930E944A1E4F
:103D00000E9477120E947C1EC0E08C2F0E944111FD
:103D1000811105C0CF5FCC30C1F7CF91089581E00C
:103D2000FCCF08950C94911E0E942E060E94351D12
:103D30000E948D020C94921E1F921FB61F92112496
:103D40008F939F93AF93BF9380917702811113C09C
:103D50008091A6029091A702A091A802B091A90219
:103D60004196A11DB11D8093A6029093A702A09336
:103D7000A802B093A902BF91AF919F918F911F901C
:103D80001FBE1F90189582E084BD93E095BD9AEF09
:103D900097BD80936E0008952FB7F8948091A60286
:103DA0009091A702A091A802B091A9022FBF0895F7
:103DB000CF93DF9300D000D0CDB7DEB78FB7F894A4
:103DC0002091A6023091A7024091A8025091A90229
:103DD00029833A834B835C838FBF69817A818B818E
:103DE0009C810F900F900F900F90DF91CF910895CD
:103DF0009C014FB7F8948091A6029091A702A091E0
:103E0000A802B091A9024FBF821B930B08950F9394
:103E10001F93CF93DF9300D000D0CDB7DEB7462FEE
:103E2000572FBC012FB7F8948091A6029091A7025A
:103E3000A091A802B091A9022FBF8C019D01041B83
:103E4000150B260B370BC901B8010F900F900F907F
:103E50000F90DF91CF911F910F91089578941F9249
:103E60001FB61F9211248F939F93AF93BF9380919E
:103E7000A6029091A702A091A802B091A902019672
:103E8000A11DB11D8093A6029093A702A093A80242
:103E9000B093A902BF91AF919F918F911F901FBEC8
:103EA0001F90189581E08093E00080E28093D80015
:103EB0001092C9008FE19EE40197F1F700C0000065
:103EC00087E090EBDC018093B7029093B802A09357
:103ED000B902B093BA0288E19CE00FB6F894A895B5
:103EE000809360000FBE90936000FFCF9093A50178
:103EF0008093A40108958091830208959091AE0269
:103F0000943031F5809378026093790270937A024D
:103F100082E08093E9008FEF9091E800815095FD59
:103F200006C095ED9A95F1F700008111F5CF8091CB
:103F3000E80085FF0DC050E040E063E070E088E7F6
:103F400092E00E948C218091E8008E778093E800B7
:103F50000895BC0184E00C947E1FBC0183E00C94A6
:103F60007E1F22E02093E9002FEF3091E8002150DE
:103F700035FD06C035ED3A95F1F700002111F5CF7A
:103F80002091E80025FF0BC050E040E066E070E0C3
:103F90000E948C218091E8008E778093E80008953C
:103FA000CF93DF93D82FC92F81E08093E9008FEF63
:103FB0009091E800815095FD06C095ED9A95F1F736
:103FC00000008111F5CF8091E80085FF16C050E018
:103FD00040E068E070E08D2F9C2F0E948C21809142
:103FE000E8008E778093E80088E0ED2FFC2FABE7A8
:103FF000B2E001900D928A95E1F7DF91CF9108959B
:104000008091AD02811109C00E9414230E94712386
:104010008091E20084608093E20008951092AD02E6
:10402000089508950895089542E061EC81E00E94AA
:10403000902242E261EC82E00C9490228091B002E6
:10404000893089F148F4823009F49DC0833009F445
:1040500058C0813041F008958A3009F484C08B3013
:1040600009F46AC008958091AF02813A09F048C00E
:104070008091E800877F8093E8008091B30290915F
:10408000B402892B61F468E08BE792E070E00E9453
:10409000DB218091E8008B778093E800089560E051
:1040A00090E080E0F3CF8091AF02813249F58091BA
:1040B000B3029091B402029718F58091E800877FCF
:1040C0008093E8008091E80082FF16C09091F30091
:1040D0008091F200029729F48091F1008B7F81306A
:1040E00021F48091F100809383028091E8008B7726
:1040F0008093E8000C94C4228091AE028111E2CF3B
:1041000008958091AF02813AD9F78091B3029091DE
:10411000B402892BA9F78091E800877F8093E8009B
:104120008091E80080FFFCCF809133018093F10003
:104130008091E8008E77DCCF8091AF02813201F769
:104140008091B3029091B402892BD1F68091E8005E
:10415000877F8093E8000E94C4228091B1028093FF
:1041600033010C942E068091AF02813249F6809182
:10417000E800877F8093E8000E94C4228091B20209
:104180008093840208958091AF02813A09F0B8CFFC
:104190008091E800877F8093E8008091E80080FFAD
:1041A000FCCF80918402C2CF84B7877F84BF0FB6D3
:1041B000F894A895809160008861809360001092C7
:1041C00060000FBE80E890E00FB6F8948093610025
:1041D000909361000FBE0C94250E0E9414230E9440
:1041E0007123E2EEF0E080818460808378940E9405
:1041F000F9250E94370E89E291E00C94301D8091E0
:10420000AE02853031F48091AE02853021F00E94FB
:10421000941E0C94410E0E944E1E8091AC02882385
:1042200091F30E947D1E882371F30E9476210E94E3
:104230002E06E9CF0C941C21FC01CB01DA012F2FB3
:10424000332723303105D1F070F42130310509F4E2
:104250003EC02230310569F48BE390E020EF31E07D
:104260002D933C93089521323105E9F02232310536
:1042700021F190E080E030E020E0F2CFCF019927FB
:10428000E13059F08230910559F0ECEEF1E0892BE4
:1042900081F7849190E09F01E3CFEAEDF1E0F9CF5F
:1042A000ECECF1E0F6CF892BB9F06130710509F73C
:1042B00089E090E02BE132E0D3CF892B91F061309F
:1042C0007105B9F68BE790E02DE332E0C9CF82E1CA
:1042D00090E02BE232E0C4CF89E090E022E032E0CF
:1042E000BFCF80E490E028EB32E0BACF80E189BD17
:1042F00082E189BD09B400FEFDCF8091D8008F7D99
:104300008093D8008091E00082608093E0008091EB
:10431000E00081FDFCCF0895AF92BF92CF92DF9273
:10432000FF920F931F93CF93DF936C01EB018A01F0
:104330000E94E322F82E811123C00115110539F0E6
:10434000F80180819181C81BD90BC80ED91EB12CF0
:10435000A12C2097A9F08091E80085FD22C08091D2
:10436000E8008E778093E80001151105A1F0F801AF
:1043700080819181A80EB91EB182A08285E0F82EBD
:104380008F2DDF91CF911F910F91FF90DF90CF90F4
:10439000BF90AF9008950E94E3228823D1F2F82EB7
:1043A000EFCFF60181916F018093F1002197FFEF2C
:1043B000AF1ABF0ACECFFC01CB012091B5023091DC
:1043C000B6022617370790F0009729F42091E800ED
:1043D0002E772093E80040E0009751F4411108C087
:1043E0008091E80082FF31C080E00895C901F3CFD9
:1043F0002091AE022223A9F12530A9F12091E800F5
:1044000023FD2DC02091E80022FDEACF2091E80095
:1044100020FFE2CF3091F3002091F200009719F0D5
:104420002830310558F041E02830310509F040E0EE
:104430002091E8002E772093E800CECF4191409361
:10444000F10001972F5F3F4FE9CF8091AE028823A3
:1044500041F0853041F08091E80083FFC1CF81E0D9
:10446000089582E0089583E00895FC01CB01209136
:10447000B5023091B6022617370790F0009729F45D
:104480002091E8002E772093E80040E0009751F457
:10449000411108C08091E80082FF32C080E0089599
:1044A000C901F3CF2091AE022223B1F12530B1F141
:1044B0002091E80023FD2EC02091E80022FDEACFE4
:1044C0002091E80020FFE2CF3091F3002091F2002C
:1044D000009719F02830310558F041E028303105B7
:1044E00009F040E02091E8002E772093E800CECF3D
:1044F00044914093F100319601972F5F3F4FE8CFF1
:104500008091AE02882341F0853041F08091E8002F
:1045100083FFC0CF81E0089582E0089583E008958D
:10452000982F973028F08F708093E90081E00895EC
:104530009093E900242F762F50E0981731F0709176
:10454000EC002091ED005091F00021FD02C09F5F32
:10455000E8CF3091EB003E7F3093EB003091ED00DF
:104560003D7F3093ED003091EB0031603093EB00F4
:104570007093EC002093ED005093F0002091EE003A
:1045800027FDE5CF80E008958091AF0287FF13C03B
:104590008091E80082FF06C08091E8008B778093CD
:1045A000E80004C08091AE028111F2CF089580919D
:1045B000AE028823D9F38091E80080FFF8CF809184
:1045C000E8008E77ECCF2091E4003091E50095E68D
:1045D000A9012091EC00822F817020FF06C08091FC
:1045E000E80080FF06C080E008952091E80022FDE9
:1045F0001AC08091AE02882389F0853089F08091BD
:10460000EB0085FD0FC02091E4003091E5004217DA
:104610005307F9F29150E1F684E0089582E008959D
:1046200083E0089581E008950E9482230E948A23F6
:10463000E0EEF0E0808181608083E8EDF0E0808151
:104640008F77808319BCA7EDB0E08C918E7F8C931F
:1046500080818F7E80831092AD0208950F931F9307
:10466000CF93DF930E9482230E948A23C8EDD0E07B
:1046700088818F77888388818068888388818F7D0F
:10468000888319BC1092AE021092AA021092AC025A
:104690001092AB0200EE10E0F80180818B7F8083E6
:1046A00088818160888342E060E080E00E949022FF
:1046B000E1EEF0E080818E7F8083E2EEF0E08081A9
:1046C00081608083808188608083F80180818E7F13
:1046D0008083888180618883DF91CF911F910F91C2
:1046E0000895E8EDF0E080818F7E8083E7EDF0E0D3
:1046F00080818160808384E082BF81E08093AD020D
:104700000C942E23E8EDF0E080818E7F8083109260
:10471000E20008951092DA001092E10008951F92CD
:104720000F920FB60F9211242F933F934F935F93E5
:104730006F937F938F939F93AF93BF93EF93FF9369
:104740008091E10082FF0BC08091E20082FF07C0F0
:104750008091E1008B7F8093E1000E94F825809199
:10476000DA0080FF19C08091D80080FF15C08091C9
:10477000DA008E7F8093DA008091D90080FF94C0A8
:1047800080E189BD82E189BD09B400FEFDCF81E0F1
:104790008093AE020E9400208091E10080FF19C04A
:1047A0008091E20080FF15C08091E2008E7F8093AF
:1047B000E2008091E20080618093E2008091D80065
:1047C00080628093D80019BC85E08093AE020E947D
:1047D00012208091E10084FF29C08091E20084FFD3
:1047E00025C080E189BD82E189BD09B400FEFDCF0D
:1047F0008091D8008F7D8093D8008091E1008F7EDA
:104800008093E1008091E2008F7E8093E2008091AE
:10481000E20081608093E2008091AA02882309F47B
:1048200049C084E08093AE020E9413208091E10091
:1048300083FF29C08091E20083FF25C08091E100C1
:10484000877F8093E10082E08093AE021092AA02FB
:104850008091E1008E7F8093E1008091E2008E7F65
:104860008093E2008091E20080618093E20042E068
:1048700060E080E00E9490228091F0008860809348
:10488000F0000E941120FF91EF91BF91AF919F9195
:104890008F917F916F915F914F913F912F910F90E9
:1048A0000FBE0F901F90189519BC1092AE020E9477
:1048B0000E2072CF8091E30087FD02C081E0B2CF6D
:1048C00083E0B0CF1F920F920FB60F9211242F9357
:1048D0003F934F935F936F937F938F939F93AF9388
:1048E000BF93CF93DF93EF93FF93D091E900DF70F5
:1048F0008091EC00C82FC17080FDC0E81092E900E3
:104900008091F000877F8093F00078940E94A62425
:104910001092E9008091F00088608093F000CD2B28
:10492000CF70C093E900FF91EF91DF91CF91BF91DC
:10493000AF919F918F917F916F915F914F913F9137
:104940002F910F900FBE0F901F9018951F93CF932C
:10495000DF93CDB7DEB7AA970FB6F894DEBF0FBED0
:10496000CDBF8FEA92E0FC0101962091F1002083F7
:1049700022E0873B9207B9F70E941E208091E80051
:1049800083FF1EC18091AF029091B0029A3008F06F
:1049900017C1E92FF0E0E050F94D0C943A26803829
:1049A00099F0823809F00CC18091B3028F70873082
:1049B00008F006C18093E9008091EB0085FB882711
:1049C00080F91092E90006C08091AB029091AC0290
:1049D000911182609091E800977F9093E800809316
:1049E000F1001092F1008091E8008E77E5C08823F5
:1049F00009F4D3C0823009F0E3C08091B102811183
:104A0000D6C08091B3028F702FEF280F263008F0A8
:104A1000D7C08093E9002091EB0020FFC8C09330FD
:104A200031F48091EB0080628093EB00C0C09091E4
:104A3000EB0090619093EB0021E030E001C0220F89
:104A40008A95EAF72093EA001092EA008091EB0041
:104A50008860EACF8111B4C01091B1021F778091B4
:104A6000E3008078812B8093E3008091E800877FCA
:104A70008093E8000E94C4228091E80080FFFCCF70
:104A80008091E30080688093E30082E0111183E06D
:104A90008093AE0295C08058823008F091C080911A
:104AA000B1029091B2028C3D23E09207A1F583E020
:104AB0008A838AE289834FB7F894DE01139620E057
:104AC0003EE051E2E32FF0E050935700E49120FFE5
:104AD00003C0E295EF703F5FEF708E2F90E0EA30F9
:104AE000C0F0C7968D939D932F5F243159F74FBF28
:104AF0008091E800877F8093E8006AE270E0CE0151
:104B000001960E94DB218091E8008B778093E8007A
:104B100057C0C096E7CF6091B3027091B402AE0166
:104B20004F5F5F4F0E941A21BC01892B09F448C0D6
:104B30008091E800877F8093E80089819A810E94B4
:104B40003522E1CF8038E1F58091E800877F8093BE
:104B5000E8008091AA028093F10045CF811130C016
:104B60009091B102923060F58091E800877F809348
:104B7000E8009093AA020E94C4228091AA0288238E
:104B800011F084E005C08091E30087FDFACF81E059
:104B90008093AE020E94142013C08091B102813034
:104BA00079F481E0933009F080E08093AC021092B8
:104BB000E9008091E800877F8093E8000E94C4228A
:104BC0008091E80083FF0AC08091E800877F80938E
:104BD000E8008091EB0080628093EB00AA960FB60C
:104BE000F894DEBF0FBECDBFDF91CF911F91089526
:104BF0000895CF938091AE028823A1F0C091E9007F
:104C0000CF709091EC00892F817090FD80E8C82BC7
:104C10001092E9008091E80083FD0E94A624CF70E5
:104C2000C093E900CF9108950E9414231092AE0220
:104C30000895E8EDF0E08081806180838AE18A95C3
:104C4000F1F700C08091D9008170089597FB072E7D
:104C500016F4009407D077FD09D00E94402607FC87
:104C600005D03EF4909581959F4F0895709561957C
:104C70007F4F0895EE0FFF1F0590F491E02D0994EA
:104C8000AA1BBB1B51E107C0AA1FBB1FA617B70772
:104C900010F0A61BB70B881F991F5A95A9F780958E
:104CA0009095BC01CD010895FB01DC0104C08D91FC
:104CB0000190801921F441505040C8F7881B990B8E
:104CC0000895FB01DC0102C001900D92415050405B
:104CD000D8F70895F999FECF92BD81BDF89A99272A
:104CE00080B50895A8E1B0E042E050E00C949E2623
:104CF000262FF999FECF92BD81BDF89A019700B495
:104D0000021639F01FBA20BD0FB6F894FA9AF99A34
:104D10000FBE08950396272F0E9479260E947826B9
:104D2000252F0E947926242F0C9479260196272F6F
:104D30000E9479260C947826DC01CB01FC01F999BC
:104D4000FECF06C0F2BDE1BDF89A319600B40D92D7
:104D500041505040B8F70895F894FFCFBF03BF0308
:104D60002104210476049204EF03EF039D04470518
:104D700058055805B905EF03EF03C205AF15A61591
:104D8000B2159C15A115A1159C15A115A115CE153F
:104D9000A115D915A115A115A115A115A1159C1530
:104DA000A115A1159C15A115C015A115A115EA15F0
:104DB000EA15EA15EA15EA15EA15EA15EA15EA15FB
:104DC000E415A115AF15A3155A1A601A641A721AC0
:104DD000761A7A1A7E1A841A8C1A901A941A981AC9
:104DE000A41AA81AAC1AB01AB61AD41ABE1A681A9B
:104DF0006E1A9C1AA01A881ABA1ACA1ADD1AE11A6F
:104E0000CF24F724E025F724E0252A254B25E025AB
:044E1000A225AE2504
:104E1400160201A1020000000100000000A102002E
:104E240000000601000000A10204070000000000C9
:104E3400002808641E140A321E7B1FD01FB11FAD48
:104E44001FA91F01E200E900EA00B500B600B7009F
:104E5400CD008301CC008A01920194012102230236
:104E640024022502260227022A02B300B4006F009E
:104E74007000E200E900EA00B500B600B700CD001A
:104E84008301CC008A0192019401210223022402AD
:104E94002502260227022A02B300B4006F00700024
:104EA400946697C63435F6F7313332360000000085
:044EB40000003E02BA
:00000001FF
