:100000000C947C010C94C3010C94F11C0C94C3015E
:100010000C94C3010C94C3010C94C3010C94C30150
:100020000C94C3010C94C3010C94CB240C949E2516
:100030000C94D81F0C94C3010C94C3010C94C301FD
:100040000C94C3010C94C3010C94C3010C94C30120
:100050000C94C3010C946A200C94C3010C94C3014A
:100060000C94C3010C94C3010C94C3010C94C30100
:100070000C94C3010C94C3010C94C3010C94C301F0
:100080000C94C3010C94C3010C94C3010C94C301E0
:100090000C94C3010C94C3010C94C3010C94C301D0
:1000A0000C94C3010C94C3010C94C30135001E00D1
:1000B0001F002000210022002B0014001A0008005D
:1000C00015001700015104001600070009000A007E
:1000D000E1001D001B000600190005002900E000DA
:1000E0003900E200E3002C000000000000000000E6
:1000F00028002A00230024002500260027002E00C7
:100100001C0018000C00120013002D000B000D0045
:100110000E000F00330034000500110010003600FF
:10012000370038002C00E7005000510052004F000B
:100130002A00280000000000000000003A003B00F8
:100140003C003D003E003F00010001005200010064
:10015000010001000100500051004F0001002F007C
:1001600001004A004B004E00010026020100010080
:10017000010001000100010000000000000000007B
:1001800001000100400041004200430044004500DE
:10019000010024002500260001000100300021009C
:1001A000220023000100010027021E001F00200082
:1001B0000100010001002700010001000100010011
:1001C0000100010000000000000000000C035700C7
:1001D00069006E0067004200000010034D006100DE
:1001E00073007400650072007900000004030904C4
:1001F00009023B00020100A0FA090400000103010A
:1002000001000921110100012240000705810308B6
:10021000000A090401000103000000092111010086
:1002200001227B000705820320000A120100020060
:10023000000008EDFE6666010001020001050109EB
:1002400002A10185020901A100050919012908156A
:100250000025019508750181020501093009311554
:1002600081257F95027508810609381581257F95BE
:100270000175088106050C0A38021581257F950154
:1002800075088106C0C005010980A1018503190117
:100290002AB700150126B700950175108100C00529
:1002A0000C0901A101850419012AA002150126A04B
:1002B00002950175108100C005010906A10105071D
:1002C00019E029E7150025019508750181029501BE
:1002D000750881010507190029FF150026FF009503
:1002E0000675088100050819012905950575019114
:1002F00002950175039101C011241FBECFEFDAE012
:10030000DEBFCDBF04B603FE27C08091EB02909103
:10031000EC02A091ED02B091EE028730904BA74025
:10032000B04BD1F41092EB021092EC021092ED025D
:100330001092EE0214BE84B7877F84BF0FB6F89484
:10034000A8958091600088618093600010926000A1
:100350000FBEE0E0F8E3099511E0A0E0B1E0ECE8C1
:10036000F0E502C005900D92A83CB107D9F722E054
:10037000A8ECB1E001C01D92AB3EB207E1F70E94CC
:10038000D9150C94E8270C9400000C94581181E0C6
:10039000089581E008950C94C70108950C94CD014F
:1003A0001F93CF93DF9300D000D00F92CDB7DEB76D
:1003B00049835A836B833091CA0189819A813111B3
:1003C0001DC06623B9F02223A9F00E94AE08182FA1
:1003D000682F89819A810E94550869817A81812FCD
:1003E0000F900F900F900F900F90DF91CF911F9172
:1003F0000C94F80E0E948408182FEFCF0E94AE08CC
:1004000069817A81EDCFFC01262F40815181628183
:10041000738184810C94D00181E00895CF93DF93A0
:10042000D82FC92F60E00E9403026D2F7C2FDF912F
:10043000CF910C94CE010E9420110E948C020C944A
:10044000C5010C945A1108950E942E060E942302A1
:100450002FEF84E39CE0215080409040E1F700C002
:1004600000000C948E200F931F93CF93DF938C0189
:1004700061E00E940302EC01B8010E94CB018823D5
:10048000A9F1B801CE010E94F81A882379F1B801C8
:10049000CE010E944D1B882349F1B801CE010E9474
:1004A000201C882319F1F8018281882361F0CB3563
:1004B000FDE5DF0721F170F4C115ECE5DE07A1F0E1
:1004C000CF3DDC45C9F0C801DF91CF911F910F915D
:1004D0000C94C901CC358DE5D807A1F0CD35DD45AB
:1004E00091F70E94830CEFCF0E94240280E0DF91FD
:1004F000CF911F910F9108950E94FD0DF7CF0E949B
:100500008C0CE1CF0E948F0CDECF08950C948502F5
:1005100081E008950C9488020895CF93C82F0E941B
:1005200086028C2FCF910C948A02CF93DF93CDB7A4
:10053000DEB72B970FB6F894DEBF0FBECDBF4F834B
:10054000588769877A878B8761110E94B40C1E8255
:1005500085E0FE013796DE01119601900D928A9595
:10056000E1F78C819D81892B89F449815A816B81C6
:100570007C818D819E810E94AC0B2B960FB6F894E6
:10058000DEBF0FBECDBFDF91CF91089589819A81E3
:1005900089238F3F51F3CE0101960E940C028111F5
:1005A000E4CFEBCFFC01808191810C94F008CF93D4
:1005B000C82F882309F44BC08CEF8C0F813AC8F404
:1005C0008C2F0E947616811142C06C2F8091000101
:1005D000909101010E94DC1E882329F08C2F0E943B
:1005E000530C0E94E50C8C2F0E944C0CCF910C9464
:1005F000E50C80E28C0F883048F4C77081E001C0C0
:10060000880FCA95EAF70E94950CF0CF8BE58C0F06
:10061000833038F42C2F2452330BC901CF910C9422
:100620009E1EE8E5EC0FE73150F4F0E0EE0FFF1FFF
:10063000E85BFE4F80819181CF910C94B41ECD3E3A
:1006400030F08C2F0E94B417CF910C948718CF9163
:100650000895882361F19CEF980F913A20F40E944D
:10066000530C0C94E50C90E2980F983050F487707E
:1006700091E001C0990F8A95EAF7892F0E949B0C9F
:10068000F0CF9BE5980F933020F490E080E00C943D
:100690009E1E98E5980F973120F490E080E00C942E
:1006A000B41E8D3E20F00E940E180C9487180895F9
:1006B0001F93CF93DF93182FEB010E94D70220974F
:1006C00031F4812FDF91CF911F910C9429038FE991
:1006D0009FE00197F1F700C000002197F0CF70E094
:1006E00060E0893311F460E570E00C9458038823CE
:1006F00021F00E94950C0C94E50C0895882321F0BC
:100700000E949B0C0C94E50C0895AF92BF92CF927F
:10071000DF92EF92FF920F931F93CF93DF9300D05E
:1007200000D00F92CDB7DEB76C016D837983FC01E9
:100730001281058102950F700E946A0CE82E8823B1
:10074000A1F0E12E112389F08981807F803429F086
:100750008D81805EE12C883040F082E00E94360D71
:100760000E946A0C91E0E82EE926A980A2949FE0FD
:10077000A922B12CF501E651F84D0C947627098198
:100780000F70F981F07F11F00295007F1123B1F015
:10079000002361F08D81805E883018F02D81211159
:1007A00009C0802F0E94950C0E94E50C8D810E944B
:1007B000D70215C0802F0E94A60CF6CF8D810E9413
:1007C0002903002361F08D81805E883018F04D810F
:1007D000411133C0802F0E949B0C0E94E50C58E011
:1007E000A51AB10864E0A616B10420F40E94711E97
:1007F0000E948D02EE2009F4CCC10E94660C80FD9F
:10080000C8C1F60112820E94600C0E944507C60111
:100810000E94F0050E94600C0F900F900F900F90B7
:100820000F90DF91CF911F910F91FF90EF90DF908C
:10083000CF90BF90AF900C947607802F0E94AC0CA5
:10084000CCCF59815F70F52E6981607F603219F0DD
:10085000F29480EFF8227D81772369F0713049F1BD
:10086000112391F1002351F1F601858180FF9ECF84
:100870008F70858323C0112381F0011106C00E946F
:10088000C80C8F290E947703AACF0130C1F70E94BC
:10089000C80C8F290E94CE0CA2CF011106C00E9465
:1008A000DB0C8F2D0E947E039ACF013009F497CF85
:1008B000F6CF112329F0063008F091CF8F2DE2CF2B
:1008C000053008F08CCFEDCF002359F3FD81F933CB
:1008D00049F42FEF47EE53E0215040405040E1F7FC
:1008E00000C000008D810E94290379CF89818695FF
:1008F0008695837069F0813009F071CF8D8199817F
:100900009370111102C090E080E00E94B41E67CF86
:100910008D8199819370111102C090E080E00E9456
:100920009E1E5DCF8D81112329F00E94B4170E9475
:10093000871855CF0E940E18FACF8981837009F06D
:1009400050C011114CCF4D81429546954770440FD0
:10095000440F8D818F7090E0B0E0A0E0042E04C0C1
:10096000880F991FAA1FBB1F0A94D2F76D8100E060
:1009700010E0980164FF0FC00FE010E020E030E0CD
:1009800004C0000F111F221F331F4A95D2F7009594
:1009900010952095309579817695769573707D8345
:1009A000B901A801482B592B6A2B7B2B49835A8309
:1009B0006B837C835D8169817A818B819C815230DC
:1009C00051F0533059F0513019F00E94BB0607CF57
:1009D0000E94930604CF0E94E30601CF0E94910675
:1009E000FECE8695112311F089818170882309F448
:1009F000F6CE4D81429546954770440F440F8D8148
:100A00008F7090E0B0E0A0E0042E04C0880F991F22
:100A1000AA1FBB1F0A94D2F76D8100E010E0980175
:100A200064FF0FC00FE010E020E030E004C0000FD2
:100A3000111F221F331F4A95D2F70095109520955C
:100A4000309579817695769573707D83B901A8018B
:100A5000482B592B6A2B7B2B49835A836B837C83CE
:100A60005D8169817A818B819C81523051F0533054
:100A700059F0513019F00E940408B1CE0E94DC07F1
:100A8000AECE0E942C08ABCE0E940F07A8CE698183
:100A90006F706983112329F0862F0E9445078D818D
:100AA000F1CE8D810E947E0389810E94760797CEC8
:100AB0007D81723FA1F160F4703FE1F0713F41F13F
:100AC000112309F445C0011171CE89818F7124C0B1
:100AD0008D81833F49F1843F99F7112379F1998101
:100AE0009F719983892F0E94450763E089810E9445
:100AF0001B0D75CE112341F0053008F070CE8981B1
:100B00008F710E94AB076BCE063008F068CEF7CF2E
:100B100089818F71112349F20E94450760CE898136
:100B20008F711123C9F3C1CF112329F089818F71EE
:100B30000E94200754CE0E941B0751CE81E00E94E4
:100B4000360D023008F44BCE82E00E94360D47CEBF
:100B5000002361F0ED81E93309F0C4CEFFEF27EE09
:100B600043E0F15020404040E1F7BACE89818F71D7
:100B70009CCF49814F706D81C6010E94F40E0E9486
:100B800026092DCE49814F706D81C6010E94F70E56
:100B900026CE0F900F900F900F900F90DF91CF9176
:100BA0001F910F91FF90EF90DF90CF90BF90AF908B
:100BB00008950F931F93CF93DF93EC0168817981A0
:100BC0008A810E94FC088C010E9454080E949006B1
:100BD000B801CE01DF91CF911F910F910C94850345
:100BE000CF93DF93EC018B819C81892B29F0888145
:100BF000998189238F3F59F4DF91CF910895CE01D8
:100C00000E94D905CE01DF91CF910C940E02CE0146
:100C10000E9433028111F3CF0E946A0C882361F392
:100C20008A81882349F382E0DF91CF910C94360DBD
:100C300090E080E00E949E1E90E080E00E94B41E42
:100C40000E94B40C0E94C50C0E94E50C0E94B119D0
:100C50000C9487180E945A0C0C9418060E94A30C3E
:100C60000C942A06282F892F82958F70903C80F44F
:100C70008A30B0F4843020F4823090F480E008951B
:100C80008630E1F781E0283E88F0213FB9F70EC0B9
:100C90008C3011F08F3091F793FB882780F90895FD
:100CA00081E0203F39F018F4283E40F70895243FB2
:100CB00029F7FCCF0895FC01808191810E94F00802
:100CC0000C943206CF93DF9300D000D00F92CDB7B3
:100CD000DEB70F900F900F900F900F90DF91CF9194
:100CE0000895CF93DF9300D000D000D0CDB7DEB70A
:100CF00026960FB6F894DEBF0FBECDBFDF91CF9121
:100D0000089508950C9481060E9482066093FC0168
:100D10007093FD018093FE019093FF010C941806DF
:100D200008950C948406CF93DF9300D000D0CDB704
:100D3000DEB769837A838B839C838091FC019091D9
:100D4000FD01A091FE01B091FF0129813A814B8103
:100D50005C81282B392B4A2B5B2B29833A834B83CD
:100D60005C83CA01B9010F900F900F900F90DF9133
:100D7000CF910C948406CF93DF9300D000D0CDB7F1
:100D8000DEB769837A838B839C838091FC01909189
:100D9000FD01A091FE01B091FF0129813A814B81B3
:100DA0005C81282339234A235B2329833A834B839D
:100DB0005C83CA01B9010F900F900F900F90DF91E3
:100DC000CF910C948406CF93DF9300D000D0CDB7A1
:100DD000DEB769837A838B839C838091FC01909139
:100DE000FD01A091FE01B091FF0129813A814B8163
:100DF0005C81282739274A275B2729833A834B833D
:100E00005C83CA01B9010F900F900F900F90DF9192
:100E1000CF910C9484060C9481060C940B070E94CD
:100E20000D076093F8017093F9018093FA01909394
:100E3000FB010C94180660E070E0CB010C940F07E6
:100E40000F931F93CF93DF9300D000D0CDB7DEB7C1
:100E500041E050E060E070E08A019B0104C0000FB7
:100E6000111F221F331F8A95D2F709831A832B8300
:100E70003C83C901B8010F900F900F900F90DF9144
:100E8000CF911F910F910C940F070F931F93CF9346
:100E9000DF9300D000D0CDB7DEB741E050E060E096
:100EA00070E004C0440F551F661F771F8A95D2F764
:100EB0008091F8019091F901A091FA01B091FB01A4
:100EC0008A019B01082B192B2A2B3B2B09831A83A0
:100ED0002B833C83C901B8010F900F900F900F90A6
:100EE000DF91CF911F910F910C940F070F931F93D8
:100EF000CF93DF9300D000D0CDB7DEB741E050E014
:100F000060E070E004C0440F551F661F771F8A958C
:100F1000D2F740955095609570958091F801909129
:100F2000F901A091FA01B091FB018A019B0108230C
:100F300019232A233B2309831A832B833C83C9016A
:100F4000B8010F900F900F900F90DF91CF911F91EC
:100F50000F910C940F070F931F93CF93DF9300D043
:100F600000D0CDB7DEB741E050E060E070E004C0F3
:100F7000440F551F661F771F8A95D2F78091F8019D
:100F80009091F901A091FA01B091FB018A019B01B6
:100F9000082719272A273B2709831A832B833C8399
:100FA000C901B8010F900F900F900F90DF91CF9172
:100FB0001F910F910C940F07CF93DF9300D000D0B7
:100FC000CDB7DEB769837A838B839C838091F801E8
:100FD0009091F901A091FA01B091FB0129813A8128
:100FE0004B815C81282B392B4A2B5B2B29833A833D
:100FF0004B835C83CA01B9010F900F900F900F9043
:10100000DF91CF910C940F07CF93DF9300D000D0E6
:10101000CDB7DEB769837A838B839C838091F80197
:101020009091F901A091FA01B091FB0129813A81D7
:101030004B815C81282339234A235B2329833A830C
:101040004B835C83CA01B9010F900F900F900F90F2
:10105000DF91CF910C940F07CF93DF9300D000D096
:10106000CDB7DEB769837A838B839C838091F80147
:101070009091F901A091FA01B091FB0129813A8187
:101080004B815C81282739274A275B2729833A83AC
:101090004B835C83CA01B9010F900F900F900F90A2
:1010A000DF91CF910C940F070895292F220FE22F83
:1010B000E90FEE0FE80F8E2F877041E001C0440F5B
:1010C0008A95EAF7E695E695E69585E0E89FF001D2
:1010D0001124E553FE4F30E020E070E05191DF0134
:1010E0001197CB01022E02C0969587950A94E2F7DC
:1010F000817081958527842385278C932F5F3F4FAF
:101100002530310559F70895292F220FE22FE90FD5
:10111000EE0FE80F9E2F9770E695E695E69585E031
:10112000E89FF0011124E553FE4F50E040E080E0DD
:10113000219130E0092E02C0369527950A94E2F7F6
:1011400021703327042E01C0220F0A94EAF7822B64
:101150004F5F5F4F4530510559F70895BF92CF92C9
:10116000DF92EF92FF920F931F93CF93DF938C0147
:10117000C090F801D090F901E090FA01F090FB01E5
:101180008091FC019091FD01A091FE01B091FF01C1
:10119000C82AD92AEA2AFB2ACFE1D0E0BC2ED701FF
:1011A000C6010C2E04C0B695A795979587950A940D
:1011B000D2F780FD0EC0219788F7B12C8B2DDF91DF
:1011C000CF911F910F91FF90EF90DF90CF90BF9044
:1011D0000895B8018C2F0E942410019761F3EECF7F
:1011E000CF93DF93D82FC92F0E94AE086D2F7C2F8D
:1011F000DF91CF910C9424101F93CF93DF93162F80
:10120000D72F9091CA01992339F0862F972FDF911C
:10121000CF911F910C94F008882391F0862F972F7F
:101220000E94AE08C82F682F812F9D2F0E9455085D
:10123000612F7D2F8C2FDF91CF911F910C94241063
:10124000862F972F0E948408C82FF2CFEF92FF922B
:101250000F931F93CF93DF938C01892B89F0F12C8F
:10126000EE24E394E8012196F8018491843709F48F
:1012700057C0A0F4823009F43EC048F48130D1F068
:10128000DF91CF911F910F91FF90EF9008959CEF08
:10129000980F9037A8F70E94D7020AC0853709F443
:1012A0004CC09CE7980F903758F78F770E9429031E
:1012B0008E0116C00E5F1F4FFE01849190E2980FC1
:1012C000983060F48770FE2D01C0FF0F8A95EAF711
:1012D0008F2F0E94B70C0E94E50C02C00E94D7021B
:1012E0008F2D815008F4BECFEFE9FFE03197F1F781
:1012F00000C00000F6CF0E5F1F4FFE01849190E208
:10130000980F983050F48770FE2D01C0FF0F8A951A
:10131000EAF78F2F0E94BD0CDECF0E942903E0CF99
:101320000E5F1F4FFE01C491C150D0F28FE99FE0C4
:101330000197F1F700C00000F7CF0E5F1F4FFE01CD
:10134000F490CECF1F93CF93DF93E091000216E08D
:10135000809101028E1304C0DF91CF911F910895F7
:10136000CE2FD0E01E9FF0011124EE5FFD4F408193
:10137000518162817381848195810E947106FE0191
:101380003196E770E5CF409132025091330260917F
:1013900034027091350280913602909137020C949C
:1013A00071061F93CF93DF9380913702807FA9F45A
:1013B00080913402882389F080910002C09101025B
:1013C0006091320270913302A0913502B0913602E1
:1013D000D62FD72316E0C81304C0DF91CF911F91F9
:1013E000089590E0109711F0DF3F19F4019687708F
:1013F000F2CF189F9001199F300D1124F901EE5F73
:10140000FD4F41814713F2CF40814613EFCF428118
:101410004111ECCF438154814A1B5B0B483C510581
:1014200028F7809137028F70806180933702F9012D
:10143000E95FFD4F80818F708061808382E392E05D
:101440000E94F005DF91CF911F910C94A209AF92F9
:10145000BF92CF92DF92EF92FF920F931F93CF93A1
:10146000DF93CDB7DEB72B970FB6F894DEBF0FBE74
:10147000CDBF8C0185E0F801DE01179601900D9239
:101480008A95E1F7F801E28082E3C82E82E0D82E47
:1014900060913502709136026115710509F440C101
:1014A0009091320220913302822F89238F3F09F4D9
:1014B00037C140815181A380B480F0903402F5019E
:1014C000E61BF70BFF2009F4DDC080913702382FAF
:1014D000307FE83CF10508F0AFC0311179C0FE2C37
:1014E000521323C0941321C0E1101FC08F7080617C
:1014F000809337020E94C309C6010E94F0058091C3
:101500003702F80185838F2D2B960FB6F894DEBF36
:101510000FBECDBFDF91CF911F910F91FF90EF9044
:10152000DF90CF90BF90AF900895AB2829F0852F22
:1015300084238F3F09F00DC180E0F82FF170DF2E7A
:10154000E09100022091010236E080FD1CC0EE20F7
:10155000D1F280913702816080933702F12CD3CF92
:101560008E2F90E03E9FF0011124EE5FFD4F6181D0
:10157000561306C06081641303C06281E612E7CF90
:10158000FC013196E770E213EBCF4F8358878F81D0
:1015900098850E94F008292F22952F70903260F0D4
:1015A000225F2F70223078F49F7051F0F8019581FE
:1015B000907F31F4D12C0AC09F7011F08823D1F3B1
:1015C000805E8830B8F3C8010E94F005FD2C9BCFE7
:1015D000521306C0941304C0F801EE2009F46DC044
:1015E000C8010E945B06882319F1EE2009F1809161
:1015F0003702803270F020913202309133023A8308
:1016000029831B82BD82AC828E83CE0101960E940B
:10161000F00586E0F801A2E3B2E001900D928A9510
:10162000E1F70E94D1090E94C309FF24F3946BCF14
:10163000C8010E94F005F9CF311113C07A2DBB8685
:10164000AA866E2D8B850E94620682E392E00E943C
:10165000F00586E0F60111928A95E9F70E94C30928
:101660007DCF5213BDCF9413BBCFE110B9CFF8019A
:101670008583C8010E94F00586E0F60111928A95E3
:10168000E9F741CFE83CF10508F03DC0FE2CEE2023
:1016900079F252132AC0941328C08091370280FD3A
:1016A0001BC0982F907FC1F0F8018583903F31F0E7
:1016B000982F907F905F8F70892B8583C8010E943F
:1016C000F00586E0F801A2E3B2E001900D928A9560
:1016D000E1F70E94C30917CF86E0F801A2E3B2E068
:1016E00001900D928A95E1F70ECFC8010E945B062A
:1016F00081118FCF80913702816080933702C801BA
:101700000E94F00500CF7A2DBB86AA866E2D8B85B0
:101710000E94620686E0F60111928A95E9F7D9CF18
:10172000EE2009F485CFC8010E945B06F82E8823BD
:1017300009F47ECF86E0F801A2E3B2E001900D92B9
:101740008A95E1F782E392E00E94D2020E94D109D9
:10175000C0CF81E08E25F1CE1F93CF93DF93CDB71D
:10176000DEB72C970FB6F894DEBF0FBECDBF4F8308
:10177000588769877A878B879C87CE0107960E9456
:10178000270A882369F08A859B85892B39F04F8148
:101790005885842F85238F3F09F077C016E065C0F8
:1017A00086E0FE013796DE01119601900D928A9532
:1017B000E1F76A857B856115710581F35F81488555
:1017C000842F85238F3F51F32091010230E0C9011E
:1017D000019687709927E0910002E817190671F4C5
:1017E0000E942E06109201021092000286E0E2E3AF
:1017F000F2E0DF011D928A95E9F7D0CF59834A8341
:101800007D836C8396E0929FD001939FB00D11244D
:10181000AE5FBD4FFE01319601900D929A95E1F7B2
:10182000809301020E94A209B9CF819FC0011124B7
:101830008E5F9D4F0E94270A8823E9F0E091000205
:101840001E9FF0011124EE5FFD4F408151816281A6
:101850007381848195810E9471068091000290E0DD
:1018600001968770992780930002809100029091E1
:1018700001028913DACF2C960FB6F894DEBF0FBEA3
:10188000CDBFDF91CF911F91089569857A858B85B2
:101890009C850E94710682CF682F809100019091F3
:1018A00001010C94161F682F809100019091010195
:1018B0000C94181F80910001909101010C941A1F43
:1018C0008091380285958595859508958091380297
:1018D0008770089590913802977081E009F480E054
:1018E00008959091BA0292FB222720F9281751F00F
:1018F00080FB92F99093BA028091B9029091BA025A
:101900000C94790D08958091BA0282FB882780F9A2
:1019100091E089270C94710C81E00C94710C80E0AB
:101920000C94710C80914402089590914402982B7C
:10193000909344020895982F9095809144028923B2
:1019400080934402089510924402089590914302B6
:10195000982B909343020895982F9095809143027D
:101960008923809343020895109243020895909131
:101970004202982B909342020895982F909580915F
:1019800042028923809342020895109242020895F0
:1019900080913902089508950C94CB0C9091BA026D
:1019A00092FD08C090913902981721F08093390276
:1019B0000C94CC0C089580913902882329F0109260
:1019C000390280E00C94CC0C0895E0910001F09174
:1019D0000101809144028083E0910001F0910101B6
:1019E000808190914302892B8083E0910001F091E6
:1019F0000101808190914202892B8083909139026C
:101A0000992381F0E0910001F09101018081892BFF
:101A1000808380910001909101010E94CA1E811172
:101A20000E94DB0C80910001909101010C94841EB6
:101A300008950C94180D9091BA0292FD10C098E090
:101A4000899F90011124622B609338020E94450700
:101A5000809138028595859585950C94190D0C9487
:101A600045071092380280E00C94190D90913802CD
:101A70008095892380933802282F277039F4282FE6
:101A8000082E000C330B9217130621F49091BA0222
:101A900092FF07C08595859585950E9476070C94E1
:101AA000310D08956FEF7FEF90E080E00C94D22726
:101AB00090E080E00E94AE279C0181E0293E3E4FED
:101AC00009F080E0089582E090E00C94A62783E07E
:101AD00090E00C94A627CF9384E090E00E94A62784
:101AE000C82F82E290E00E94A627982F8C2FCF91DA
:101AF0000895CF93682FC92F84E090E00E94B42707
:101B00006C2F82E290E0CF910C94B427AB01BC0122
:101B10008FE090E00C94C627AB01BC0183E190E01C
:101B20000C94C62760E070E0CB010C948C0D60E053
:101B300070E0CB010E94860D0C94920D69EE7EEF51
:101B400090E080E00E94D22760E082E090E00E9476
:101B5000B42760E083E090E00E94B4271092FC017B
:101B60001092FD011092FE011092FF0160E084E0EE
:101B700090E00E94B42760E082E290E00E94B427E7
:101B800060E085E090E00E94B42760E086E090E0AD
:101B90000E94B4276FEF87E090E00E94B42740E0F6
:101BA00050E0BA0188E090E00E94C62760E08DE036
:101BB00090E00E94B42740E050E0BA0188E190E054
:101BC0000E94C62760E087E190E00E94B42740E0D1
:101BD00050E0BA018CE190E00E94C62770E060E01E
:101BE00080E290E00E94D22740E050E0BA0188E114
:101BF00090E00E94C6270C94970D0C949E0D682FC0
:101C00008EE090E00C94B4270E94142060935A0256
:101C100070935B0280935C0290935D026093560226
:101C200070935702809358029093590208950E942E
:101C3000142060935A0270935B0280935C0290932D
:101C40005D0260935202709353028093540290930A
:101C50005502089585B7806885BF85B7806885BFC0
:101C60000895089508950C94310E08950C94350E3E
:101C70000E942A0E83E091E10E94B2200E94320E5F
:101C80000C94330E0C941C13089508950E94440E76
:101C90000C94450E0E94FF1F0E94221F0E940D12ED
:101CA0000E94741A0E94C3190C94360EAF92BF9210
:101CB000CF92DF92EF92FF920F931F93CF93DF9318
:101CC00000D000D00F92CDB7DEB70E9492128111E2
:101CD0000E94040E86E4A82E82E0B82E10E000E0F8
:101CE000C02E802F0E945C11F82EF501E1905F015B
:101CF000E81609F452C080915E0281FD0E946211D3
:101D00008E2D8F25D12CEE24E394982F9E2109F45B
:101D10003FC00E94420E882399F0D982CA82FE20D9
:101D200081E009F480E08B830E9408208160782F95
:101D30009D838C8349815A816B818D810E9495029C
:101D4000F801EA5BFD4F8081E826E0820E94DC1901
:101D500081110E94170E0E94A1180E94711E90917D
:101D60004502891789F10E94711E809345020F90E8
:101D70000F900F900F900F90DF91CF911F910F91C7
:101D8000FF90EF90DF90CF90BF90AF900C948D02BA
:101D9000D394EE0CF6E0DF12B8CF0F5F1F4F0C307C
:101DA000110509F09DCF8FEF89838A831B820E94E2
:101DB00008208160782F9D838C8349815A816B81B3
:101DC0008D810E949502C2CF0F900F900F900F90BF
:101DD0000F90DF91CF911F910F91FF90EF90DF90C7
:101DE000CF90BF90AF90089590E080E0089508955F
:101DF000972F70E026E0929F600D711D1124FB016A
:101E000098E4899FE00DF11D1124EE0FFF1FE455AA
:101E1000FF4F859194910895FC01EE0FFF1FE4534D
:101E2000FE4F859194910895CF93DF930E942810DF
:101E3000EC01811520E5920708F04BC0811530E4D4
:101E4000930708F0B2C0803E910518F5803C9105DB
:101E500008F09FC0883A910570F4853A910508F022
:101E600095C08130910529F10497813A910508F1D7
:101E7000D0E0C0E01EC08F3B9105D1F3C85AD0E03E
:101E8000CC0FDD1FCA58DE4F0990D881C02DD46415
:101E900010C0811540E2940780F48F3F910509F04E
:101EA00040F4883E910528F08D5E9109D0654397F6
:101EB000F8F6CE01DF91CF910895C11580E3D807E0
:101EC00008F46DC0CE019927D3FD6CC0EC01D06C35
:101ED000F0CFC11595E5D90760F5C11524E5D20706
:101EE00008F094C0C11533E5D30778F4C11542E575
:101EF000D40708F07AC0C11581E5D80708F458C0A6
:101F0000DC2FCC27C16FD06AD4CFCE018370992744
:101F100021E030E002C0220F331F8A95E2F7C69518
:101F2000C69590E2C99FE0011124C22BD32BDA6839
:101F3000C0CFC1152AE5D207B0F4C11539E5D307E2
:101F400008F074C0C11546E5D40708F464C0CE019A
:101F500098558F3F910511F008F08ACFDC2FCC27E0
:101F6000C06FD06AA6CFCE0190568115904208F07E
:101F70007FCF8D2F8F710E94C01090E0982F8827FF
:101F800088279F719C012C2BE9014EC0A497D06437
:101F900090CF805C91090E940C0FEC018ACFCE019A
:101FA0009F70F9CFEC01D86C84CFDF70D06A81CFFD
:101FB000CE0174E0969587957A95E1F783702C2F82
:101FC00026952695237040E2249F90011124382BFA
:101FD0008C2F8370C1E0D0E002C0CC0FDD1F8A954A
:101FE000E2F7C22BD32BDC6864CFCE018370992734
:101FF00021E030E002C0220F331F8A95E2F7C69538
:10200000C69580E2C89FE0011124EBCFDC2FCC27DE
:10201000C46FD06A4ECF8C2F0E94C010C82FD0E062
:10202000DC2FCC27CC27DF71D06243CF8C2F8F7071
:102030000E94C01034E0D695C7953A95E1F7CF706D
:10204000DC2FC82FD06935CF0E94F80E0C94140FE6
:10205000803E910599F1C8F48133910509F476C069
:1020600048F48932910509F46AC08A32910509F46D
:1020700074C0089589339105D1F082389105B9F083
:102080008533910509F454C00895843E910599F172
:1020900038F4823E9105F9F0833E910509F10895E7
:1020A000863E910599F1873E9105B9F108952091F9
:1020B000B9022370A1F080EE90E008952091B9025A
:1020C00020FD52C03091BA0230FF09C024FF4FC03A
:1020D00090E080E004C02091B90222FDF7CF08957E
:1020E0002091B90222FD46C03091BA0230FDE3CF03
:1020F00024FFF5CFEDCF2091BA0221FFF0CF8091E0
:10210000B90284FDE5CF87EE90E008952091B902F1
:1021100023FFE5CF24FDDCCFF6CF2091B90223FDCC
:102120002CC03091BA0231FFE3CF84EE90E00895E5
:102130002091B90225FFD3CF89E290E00895209144
:10214000B90225FFCCCF85E390E008952091B90234
:1021500026FFC5CF8AE290E008952091B90226FFBC
:10216000BECF81E390E0089589E390E0089583EE87
:1021700090E0089582EE90E0089586EE90E0089554
:102180009091B90292FF06C0282F28712830F9F4E7
:10219000877F846093FF06C0282F28712831F1F4CF
:1021A000877E84612091BA0220FF06C0382F3871E3
:1021B0003830D9F4877F816021FF06C0282F28712D
:1021C0002831D1F4877E816194FD877E0895282F80
:1021D00024712430F9F68B7F8860DCCF282F24719E
:1021E000243101F78B7E8861DDCF382F317131309A
:1021F00019F78E7F8860E0CF282F2171213121F7D8
:102200008E7E8861E1CF80E008950C94520D0E948B
:1022100092122FEF86E791E0215080409040E1F745
:1022200000C000000E94921280E00E945C1180FFBA
:1022300004C00E9405110C948E2008950C9407117F
:10224000CF93DF9300D000D0CDB7DEB70E94580DFA
:10225000811102C00E94FD0D0E94630D80935E02F9
:102260000E946B0D9093BA028093B9020E941E11D6
:102270000E94670D282F30E050E040E0CA01B9010C
:102280000E9491068091F8019091F901A091FA01C4
:10229000B091FB0189839A83AB83BC83BC01CD01E0
:1022A0000F900F900F900F90DF91CF910C940D072E
:1022B000089508950C945911E82FF0E0E953FD4F6B
:1022C00080810895089580EA8A95F1F7089500C005
:1022D00008950C946311F894E82FE295EF70F0E004
:1022E00041A18F7021E030E0B90102C0660F771F75
:1022F0008A95E2F7CB01962F9095942391A392A112
:10230000892B82A37894089508950C948411CF9317
:10231000DF93CAEAD1E089918F3F11F00E946B11DF
:1023200081E0C03BD807B9F7C4EAD1E089918F3F7B
:1023300011F00E946B1181E0CA3AD807B9F7DF911A
:10234000CF910895CF92DF92EF92FF920F931F9358
:10235000CF93DF93EC01D62E062F10E0C8018655EF
:102360009E4F7C01FC0120812F3F09F44BC0F89463
:10237000E22FE295EF70F0E031A12F7081E090E064
:1023800001C0880F2A95EAF7932F982B91A392A169
:102390008095892382A378940E946711E4EAF1E092
:1023A00030E020E0C12C51E041914F3FA1F1A42F3A
:1023B000A295AF70B0E090968C9190E04F7002C003
:1023C000959587954A95E2F780FD25C0852F022EC9
:1023D00001C0880F0A94EAF7C82A2F5F3F4F2630C2
:1023E000310511F7F70180818F3F11F00E946B11C9
:1023F00061E0C11001C060E08D2D0E946911C00F25
:10240000D11FC882DF91CF911F910F91FF90EF9064
:10241000DF90CF90089580E0DFCF0E943913809144
:1024200002018091020196E0811190E09093D40224
:1024300086E0891B8093D3020E948711EBEBF2E0C8
:10244000A7ECB2E011921D9282E0E73CF807D1F7C9
:1024500086E00E94E5120E941B020C9443131F9316
:10246000CF93DF9300D000D000D0CDB7DEB70E946D
:102470001C13182F6091D402882309F446C01A82D5
:102480001982FE01339684E0DF011D928A95E9F7F7
:10249000862F90E0BE016F5F7F4F89539D4F0E9452
:1024A0005113E091D3029E01295F3F4FF0E0882352
:1024B00011F1BF0169537D4FDE01119610E0FB0160
:1024C0004191BF019D91491731F0AF014150510930
:1024D000FA019083182FA217B30789F70E942102EF
:1024E000812F26960FB6F894DEBF0FBECDBFDF91C9
:1024F000CF911F910895E953FD4FDE01119611927E
:102500001D92A217B307D9F7E9CF70E069537D4F49
:102510008091D30290E089539D4F0E94E7130E945F
:102520008511DECF0F931F93CF93DF93CDB7DEB727
:102530002C970FB6F894DEBF0FBECDBF1A8219825A
:10254000FE0133968AE0DF011D928A95E9F710E0DB
:10255000612FCE0101960E94A2111F5F1630C1F7B4
:102560004CE050E0BE016F5F7F4F8BEB92E00E942A
:1025700090278C0121E0892B09F420E00115110539
:1025800049F08CE0FE013196ABEBB2E001900D9288
:102590008A95E1F76091D40270E069537D4F46E07F
:1025A0008BEB92E00E94E61281E090E0012B11F4A7
:1025B0000E942F122C960FB6F894DEBF0FBECDBF2F
:1025C000DF91CF911F910F9108950895FF920F937E
:1025D0001F93CF93DF93F82E092F162FD72FC42FD9
:1025E000222349F081E0809361020E9408209093A9
:1025F000600280935F02809161028823A1F0809144
:102600005F02909160020E943420059760F0EF2DE8
:10261000F02FA12FBD2FCE0FDF2FD11DEC17FD07FF
:1026200041F410926102DF91CF911F910F91FF90C1
:10263000089581918D93F2CF80916402811107C03A
:102640000E945527882351F081E08093640281E045
:1026500090916402913009F080E0089582E08093C7
:1026600064020E945027F3CF0E941C1391E0892737
:1026700008950E943413809302010E941C1381115B
:102680000C94891308950E941C13811102C00C94AC
:102690008B13089581E0909165029A3008F080E0F4
:1026A00008950F931F93CF93DF93EC01162F072FFD
:1026B000809165028A30C0F4612F702FCE010E9494
:1026C000E513C82F811122C0809165028F3FB9F4B4
:1026D0000E94082090936302809362028C2FDF9106
:1026E000CF911F910F9108958091620290916302A2
:1026F0000E943420843F9140F8F6C0E0EFCF8F5F16
:10270000809365028A3020F7C1E0E8CF109265021D
:10271000E5CF0C94AA1C0C94AD1CCF92DF92EF92E3
:10272000FF920F931F93CF93DF93FA016901780112
:10273000C82F880FDD0B3097B9F08AE08C9FD0014D
:102740008D9FB00D1124AD5FBE4F13968D919C915E
:1027500014978A599D4F12964C9150E0E417F50753
:1027600008F4AF010E949D27CE010E94B81D892B5D
:1027700011F5E114F104E9F08AE08C9FF0018D9FDE
:10278000F00D1124ED5FFE4F458150E0E416F50693
:1027900008F4A7018AE08C9FF0018D9FF00D1124B1
:1027A000ED5FFE4F668177816A597D4FC6010E94B9
:1027B0009D2781E001C080E0DF91CF911F910F91B3
:1027C000FF90EF90DF90CF9008950C9462150C94D9
:1027D00089150F931F93CF93DF93CDB7DEB728975B
:1027E0000FB6F894DEBF0FBECDBF809185029091E9
:1027F0008602A0918702B0918802BC01CD010E949F
:10280000432011E0643671058105910520F10E9495
:10281000541FDC01CB010296A11DB11D89839A834F
:10282000AB83BC8310E000E030E020E044E050E007
:10283000BE016F5F7F4F84E00E948D13182F8823A5
:1028400051F00E9414206093850270938602809359
:10285000870290938802812F28960FB6F894DEBFE6
:102860000FBECDBFDF91CF911F910F9108956F9251
:102870007F928F929F92AF92BF92CF92DF92EF9210
:10288000FF920F931F93CF93DF9300D000D00F924E
:10289000CDB7DEB7662E5A01722E832E902EC12E32
:1028A00001E010E09E012F5F3F4F50E040E070E0FC
:1028B00060E00E948D13D82E882309F449C0D50109
:1028C0008D919D910D90BC91A02DBC01CD010E94D8
:1028D0004320643671058105910590F18701272D0C
:1028E000382D50E040E070E060E0862D0E948D13AE
:1028F000D82EB701892D9C2D0E94751A91E029814F
:10290000281390E0D92239F00E941420F501608349
:102910007183828393838D2D0F900F900F900F9072
:102920000F90DF91CF911F910F91FF90EF90DF906B
:10293000CF90BF90AF909F908F907F906F900895B1
:10294000B701892D9C2D0E94751A99818913C6CFD4
:10295000A701692D7C2D872D982D0E949D27DBCF07
:10296000EF92FF920F931F93CF93DF930F92CDB708
:10297000DEB70091B6011091B701085F1F4FEE243A
:10298000E394F12C9E012F5F3F4F41E852E063E05A
:1029900082E00E943714182F882321F0CE0101967F
:1029A0000E94351A812F0F90DF91CF911F910F91C7
:1029B000FF90EF900895CF92DF92EF92FF920F93E6
:1029C0001F93CF93DF9300D000D000D0CDB7DEB7F8
:1029D0006B010091B6011091B7010F5F1F4F86E0A8
:1029E000E82EF12C9E012F5F3F4F4DE752E061E052
:1029F00080E00E943714882349F096E0FE0131966A
:102A0000A7E7B2E001900D929A95E1F796E0E7E72B
:102A1000F2E0D60101900D929A95E1F726960FB655
:102A2000F894DEBF0FBECDBFDF91CF911F910F9104
:102A3000FF90EF90DF90CF900895AF92BF92CF922A
:102A4000DF92EF92FF920F931F93CF93DF93F82EB5
:102A5000E92ED62EC72E8A010E944A13AA24A394D7
:102A6000B12C882319F08AE0A82EB12CC1E0D0E067
:102A7000F8946D2D7C2D8F2D9E2DF801099578945D
:102A8000811104C02196AC16BD065CF4DF91CF9194
:102A90001F910F91FF90EF90DF90CF90BF90AF907C
:102AA0000895CC9F9001CD9F300D300D112490E002
:102AB00080E045E34A95F1F70000019682179307FD
:102AC000C1F7D6CF0F931F93CF93DF93D82FC92F82
:102AD0008B014BED54E10E941D158823A1F040EBC2
:102AE00054E1B8018D2F9C2F0E941D15882359F0A9
:102AF00049EE53E1B8018D2F9C2FDF91CF911F91AB
:102B00000F910C941D1580E0DF91CF911F910F91D3
:102B100008950F931F93CF93DF930F92CDB7DEB736
:102B2000FB01F8940091B6011091B701C80101961C
:102B300026E0DC0101900D922A95E1F766E070E055
:102B40000E94751AF80180837894F894CE0101965A
:102B50000E942C1A8981F801808761E070E0CE0123
:102B600001960E94751AF80187837894F89461851C
:102B7000728583859485009173021091740220916F
:102B8000750230917602601771078207930751F042
:102B9000609373027093740280937502909376022F
:102BA0000E942B1F78940F90DF91CF911F910F916E
:102BB00008950E94851F0E9410220E9429220E94CF
:102BC0003B220E94460EFBCF0F931F93CF93DF93C0
:102BD00000D000D0CDB7DEB741E050E060E070E05B
:102BE0008A019B0104C0000F111F221F331F8A9509
:102BF000D2F709831A832B833C83C901B8010E9451
:102C000091060F900F900F900F90DF91CF911F9131
:102C10000F910C942E068B3258F48530C0F0EBEFF8
:102C2000E80FE632A0F4F0E0E650F84D0C94762779
:102C3000833450F48A3308F051C0853309F44AC014
:102C4000883329F481E00895833409F443C080E097
:102C500008950E94FD0DF6CF80915E02807F8093E3
:102C60005E0281E080938C0208950E942402EACFE4
:102C700090915E02892F8E7F90FF816080935E022B
:102C800080FDE0CF817F80935E02DCCF90915E0279
:102C9000892F8D7F91FF826080935E0281FFD2CF6A
:102CA00080915E028160EFCF90915E02892F8B7FD1
:102CB00092FF846080935E0282FDF2CFC3CF909139
:102CC0005E02892F877F93FF886080935E0283FD79
:102CD000E7CFB8CF80E00E94E415B4CF8953FBCF93
:102CE0008D51F9CF80E008950C947216CF93C82FC0
:102CF00080918C028130A1F08230A1F18111ADC0B0
:102D00000E94920C823209F0AAC08C2F0E94721687
:102D100081111BC08C2F0E940B168170CF910895DA
:102D20000E94920C823289F38C2F0E9474168111BA
:102D30000AC0C431A1F060F4CB3029F0C03169F78A
:102D400082E080938C0281E0E8CF81E090E0E5CFE3
:102D5000C93229F081E0C83301F380E0DECF109260
:102D60008C02FBCFCF3409F470C0C0F4C83248F4F1
:102D7000CE3188F5C73009F455C0C43121F081E067
:102D8000CDCFC932E1F780918B028823C1F3109235
:102D90008B0210928A0210928902F1CFC13509F498
:102DA00056C081E0C23519F086EFC03541F7E09199
:102DB0008902F0918A02309711F32081082E000CCD
:102DC000990B820F911D8F3F910509F00CF441C0C2
:102DD0008FEF8083D4CFCD51C0938B02C430E1F00C
:102DE00068F4C230B1F08AE391E0C33069F08CE35B
:102DF00091E0C13049F010928B02C1CFC53079F01B
:102E000085E391E0C630B9F790938A0280938902F6
:102E1000B6CF8BE391E0F8CF89E391E0F5CF86E37D
:102E200091E0F2CF8EE180933C0182E380933B01FD
:102E30008AE080933A0184E18093390188E08093AD
:102E4000360188E2809335019ACF8AE0B0CF8FEFC8
:102E5000AECF97FFBECF108292CF10928C0280E04F
:102E60005DCF8091930280FF12C060913A0185E0AE
:102E7000689FB001112475956795759567956038C1
:102E80007105A8F561157105A1F1862F089581FFDF
:102E900009C060913A0185E0689FB00111247595E1
:102EA0006795EDCF60913A0182FD0AC08091920250
:102EB0008823D1F09091390160913A01891728F067
:102EC00085E0689FB0011124DACF869FB0011124FC
:102ED00085E0869F9001879F300D1124692F70E057
:102EE000C9010E946227CBCF65E070E0CECF8FE7AB
:102EF000089581E008958091930280FF0CC0609155
:102F0000360170E075956795759567956115710542
:102F100049F1862F089581FF06C06091360170E067
:102F200075956795F3CF6091360182FD0BC0909146
:102F300091029923A1F06091350180913601961795
:102F400038F0682F70E06038710500F38FE708955E
:102F5000899FC001112470E00E946227F4CF61E0D4
:102F600070E0D7CF81E008958D3E31F40E94311793
:102F700081958093970208958E3E19F40E9431172F
:102F8000F8CF8F3E31F40E943117819580939602DD
:102F90000895803F19F40E943117F8CF893F29F432
:102FA0000E947B178093980208958A3F21F40E9423
:102FB0007B178195F7CF8B3F31F40E947B1781956A
:102FC0008093990208958C3F19F40E947B17F8CFE3
:102FD0009FE0980F983070F4815F990B21E030E00A
:102FE00001C0220F8A95EAF780919502822B809387
:102FF000950208958D3F31F4809193028160809312
:10300000930208958E3F21F4809193028260F7CF5E
:103010008F3FB9F7809193028460F1CF409196027F
:103020008D3E59F48091970287FF0DC01092970250
:1030300041110BC01092920208C08E3E81F4809123
:10304000970218169CF3442381F080919802909186
:103050009902892B09F05AC01092910208958F3E6F
:1030600049F447FFF0CF10929602809197028111A8
:10307000ECCFE0CF803F19F41416ACF3E4CF90917D
:103080009802893F29F41916F4F610929802DBCFC2
:103090008A3F19F497FFD7CFF8CF909199028B3FD1
:1030A00029F497FFD0CF10929902CDCF8C3F19F41D
:1030B0001916CCF3C8CF9FE0980F983090F4815F39
:1030C000990B21E030E0B90102C0660F771F8A95A5
:1030D000E2F7CB0180959091950289238093950228
:1030E000B2CF8D3F31F4809193028E7F8093930213
:1030F000AACF8E3F21F4809193028D7FF7CF8F3F2F
:1031000009F0A1CF809193028B7FF0CF08950E94A8
:1031100008202091960230919702232B21F0809372
:103120008F02909390022091980230919902232B64
:1031300021F080938D0290938E0284E992E00C94AA
:103140008F1EEF92FF920F931F93CF93DF9300D0C8
:1031500000D000D0CDB7DEB786E0E4E9F2E0DE01D2
:10316000119601900D928A95E1F7E0909602F09009
:103170009702009198021091990210929602109273
:10318000970210929802109299028F2D8E2991F039
:1031900080918F02909190020E9434209C01809136
:1031A0009202882309F443C090913B0192171306C1
:1031B00008F44BC0802F812B91F080918D0290916B
:1031C0008E020E9434209C0180919102882309F490
:1031D0007BC0909137019217130608F483C0809149
:1031E000960290919702892B90919802892B909149
:1031F0009902892B11F00E948718EB82FC820D83C3
:103200001E8386E0FE013196A4E9B2E001900D92A2
:103210008A95E1F726960FB6F894DEBF0FBECDBFB4
:10322000DF91CF911F910F91FF90EF900895409102
:103230003C019AE0499FA00111244217530708F06E
:10324000B9CF8F5F8093920202C08F3FD1F7EE20FB
:1032500059F00E9431179FEF1E140CF491E0899FE2
:10326000802D112480939602FF2059F00E9431177F
:103270009FEF1F140CF491E0899F802D11248093FF
:10328000970230919602332309F494CF209197024C
:10329000222309F48FCF45EB3403C0011124992375
:1032A00059F09093960245EB2403900111243323A7
:1032B00039F0309397027ECF81E080939602F3CF6E
:1032C00081E08093970276CF409138019AE0499F40
:1032D000A00111244217530708F081CF8F5F80931C
:1032E000910202C08F3FD1F7002359F00E947B1753
:1032F0009FEF10160CF491E0899F802D112480938C
:103300009802112359F00E947B179FEF11160CF4BD
:1033100091E0899F802D1124809399023091980229
:10332000332309F45CCF20919902222309F457CF6B
:1033300045EB3403C0011124992359F0909398026E
:1033400045EB240390011124332339F03093990283
:1033500046CF81E080939802F3CF81E08093990279
:103360003ECF86E0E4E9F2E0DF011D928A95E9F7BD
:10337000109292021092910210929302089581E0AD
:1033800008950C94BF1984988C9A85988D9A8FB162
:10339000829581707D990EC090E0892B80939F0269
:1033A0009091020181E0982790939B02891B809362
:1033B0009A02089592E0F1CFCF93E0919F02EE0F31
:1033C000EE0FE0939F024FB144FB882780F94FB185
:1033D00045FB222720F945FF02C022E030E0822B86
:1033E000E82BE0939F02C0919B02EF70F0E0E8545D
:1033F000FE4F808190919E02890F80939E0220E073
:10340000843064F0EC2FF0E0E456FD4F80818F5F54
:10341000808360E08C2F0E94C11921E080919E0280
:103420008D3F64F4EC2FF0E0E456FD4F8081815035
:10343000808361E08C2F0E94C11921E080919E025F
:10344000082E000C990B64E070E00E9462278093C4
:103450009E02822FCF910895E0919B02F0E0E45606
:10346000FD4F2081FC0120830895FF920F931F934D
:10347000CF93DF93D0919A020D2F10E004561D4F89
:10348000FC01C081F8018081C81BFC2E80E01F1464
:103490007CF09C2FC7FD90E0C91BC11114C088238C
:1034A000E9F0DF91CF911F910F91FF900C94170ECF
:1034B000FA94F80180818F5F808360E08D2F0E94F5
:1034C000C11981E0E4CFCF5FF80180818150808312
:1034D00061E08D2F0E94C11981E0DFCFDF91CF9194
:1034E0001F910F91FF9008950895FC01680F791FB7
:1034F0008FEF91E36E177F0709F4089521918227DA
:1035000028E030E087FF06C0880F89272150310965
:10351000C9F7F0CF880FFACF0F931F93CF93DF93A4
:10352000C42FD22FFC0182818823C9F04093A202CC
:103530000E9408209093A1028093A00280E28C0F49
:10354000883008F050C0C77081E001C0880FCA956C
:10355000EAF7DF91CF911F910F910C9477031091AF
:10356000A202141335C08091A0029091A1020E9482
:103570003420883C910560F5C0E2CD0F1D17B9F0ED
:1035800080E2810F883040F4177081E001C0880F1D
:103590001A95EAF70E947E03C83048F481E09D2F17
:1035A000977001C0880F9A95EAF70E947703802FE1
:1035B0000E946F03C830B8F4D77081E001C0880F53
:1035C000DA95EAF7DF91CF911F910F910C947E036A
:1035D00080E28C0F883038F4C77081E001C0880F1A
:1035E000CA95EAF7EFCFDF91CF911F910F91089520
:1035F0000F939C01CB01243F4CE53407A1F190F4DB
:10360000293DFCE53F0749F12A3D4CE53407E9F146
:10361000283D3C45C1F0FC0182818823E1F11092F4
:10362000A20219C0263FFCE53F0719F1273F4CE5F0
:10363000340729F1253F3C4571F707E225EE44EEBA
:1036400065EF7CE505C006E221EE41EE68ED7CE524
:103650000E948C1A80E00F91089507E225EE45EE56
:1036600069ED7CE5F5CF06E221EE40EE64EF7CE506
:10367000EFCF06E221EE42EE66EF7CE5E9CF07E20E
:1036800025EE46EE67EF7CE5E3CF08E221E045EE6C
:103690006AED7CE5DDCF81E0DECFCF93DF93EC01F7
:1036A000FB018281882309F4C9C0C631FCE5DF072C
:1036B000E0F4C2309CE5D907F0F00E946B0D9093C6
:1036C000BA028093B902C631ECE5DE0720F5C230BC
:1036D000FCE5DF0798F48091B9029091BA020E944C
:1036E000790D0E942E0680E006C09E012B5F3C45AE
:1036F0002930310510F3DF91CF910895FE01E35099
:10370000FC458091B9028160E331F10588F4E05E07
:10371000F74D0C947627CB5FDC45C930D105D8F640
:10372000CD5CD74DFE010C9476278091B902826062
:103730008093B902D0CF8091B9028460F9CF809193
:10374000B9028860F5CF8091BA0281608093BA0295
:10375000C2CF8091BA028260F9CF8091B9028061B4
:10376000E7CF8091B9028062E3CF8091B902806493
:10377000DFCF0E942E068091B9028068D9CF809158
:10378000B9028C60D5CF8091BA028360DFCF80917F
:10379000B9028E7FCDCF8091B9028D7FC9CF809144
:1037A000B9028B7FC5CF8091B902877FC1CF80914D
:1037B000BA028E7FCBCF8091BA028D7FC7CF809126
:1037C000B9028F7EB5CF8091B9028F7DB1CF809144
:1037D000B9028F7BADCF0E942E068091B9028F7700
:1037E000A7CF8091B902837FA3CF8091BA028C7F4B
:1037F000ADCF8091B90282FB992790F921E0922701
:1038000090FB82F990FB83F993CF8091BA02982FB5
:10381000909591708E7F892B90FB81F997CF0E94B4
:103820002E069091B902892F97FB87F9805880CF97
:1038300081E00E94FF0D4FCF80E0FBCF81E05BCFA6
:10384000CF93DF93EB0186319C4511F50E94920CDA
:103850009A81992399F08A7A91E009F490E0909303
:10386000A302811109C089E20E944C0C0E94E50C60
:1038700080E0DF91CF91089585E3F6CF8091A30298
:10388000811104C089E20E94530CF0CF85E3FBCF85
:1038900081E0EFCF8EE1499B02C08150E1F7499B67
:1038A000FECF0895599880E28A95F1F7599A0895C4
:1038B000FC013BE03A95F1F798E020E080E031E050
:1038C00040E14A95F1F7880F499B02C081602327A8
:1038D00042E04A95F1F7000040E14A95F1F7915036
:1038E00079F790E19A95F1F799B132E03A95F1F7CD
:1038F000000040E14A95F1F796959170922720815A
:10390000920F90830895EF92FF920F931F93CF939E
:10391000DF930F92CDB7DEB719828C017C01E60EE2
:10392000F11C0E151F0561F481E09981911180E071
:103930000F90DF91CF911F910F91FF90EF9008951D
:103940000E944A1CCE0101960E94581CF8018193E6
:103950008F01E7CF519A599A08955198599AE99A47
:10396000E9E6F0E08081837F808308956150770BE2
:1039700091E001C0990F6A95EAF720E031E09111DA
:1039800008C0222391F0599A80E28A95F1F759985C
:103990000895492F482339F0599A232740E24A9540
:1039A000F1F79695ECCF5998F9CF5998EDCFFF9252
:1039B0000F931F93CF93DF93EC018C01060F111D22
:1039C000C017D10731F4DF91CF911F910F91FF9074
:1039D0000895F9900E94521C68E08F2D0E94B61C39
:1039E000EFCF1F920F920FB60F921124EF92FF921A
:1039F0000F931F932F933F934F935F936F937F93F7
:103A00008F939F93AF93BF93EF93FF93CF93DF93E6
:103A10000F92CDB7DEB719820E944A1CCE010196E3
:103A20000E94581C282FA82FA695A695A695982FDA
:103A3000929595708A2F8570980F892F837096952F
:103A40009695890F822787709981892B09F075C017
:103A5000A63008F072C080E18A95F1F7599A519A20
:103A6000B2E0BA95F1F700C0EA2EF12C5998EAE0DD
:103A7000AE9FD0011124AD5FBE4F1896ED91FC9121
:103A800019973097B1F06091B6017091B701169611
:103A90002D913C911797260F371F13968D919C916E
:103AA0001497680F791F15964C91159712968C9163
:103AB00009958AE08E9DF0018F9DF00D1124ED5F38
:103AC000FE4F6581662351F02091B6013091B70118
:103AD00086819781820F931F0E94D71C0E94521CDF
:103AE000F0E1FA95F1F759985198599A80E18A9541
:103AF000F1F78AE08E9D80018F9D100D11240D5FDE
:103B00001E4FD80112966C911297662371F1209185
:103B1000B6013091B70113968D919C91820F931F3E
:103B20000E94831CD801ED91FC91882311F088E05C
:103B300001C082E080830E944A1C0F90DF91CF91E8
:103B4000FF91EF91BF91AF919F918F917F916F9175
:103B50005F914F913F912F911F910F91FF90EF90A7
:103B60000F900FBE0F901F901895ED91FC91DFCF35
:103B70000F931F93CF93DF93EC0106970CF0A9C02E
:103B80008AE08C9FF0018D9FF00D1124ED5FFE4FB8
:103B900080819181892B09F49CC0F894519A59989D
:103BA00085E08A95F1F700008C2F869585709C2F13
:103BB0009570890F982F937086958695890F8E0141
:103BC00093E0000F111F9A95E1F7082B0E94521CF9
:103BD00000C068E0802F0E94B61CA0E1AA95F1F712
:103BE0005198599A499B27C087E090E0499925C090
:103BF0008AE08C9F80018D9F100D11240D5F1E4F58
:103C0000F80165816623A1F12091B6013091B701D9
:103C100086819781820F931F0E94831C811128C087
:103C2000519A599AD801ED91FC9182E08083789461
:103C300082E090E016C000C0D5CF0197B9F4519A48
:103C4000599A8AE08C9FF0018D9FF00D1124ED5F51
:103C5000FE4F0190F081E02D81E08083789481E037
:103C600090E0DF91CF911F910F91089500C0BECFDA
:103C70000E944A1CB0E2BA95F1F75998519AE0E1D6
:103C8000EA95F1F78AE08C9FF0018D9FF00D1124E9
:103C9000ED5FFE4F6281662351F02091B6013091B5
:103CA000B70183819481820F931F0E94D71C0E94C9
:103CB000521C8AE08C9FF0018D9FF00D1124ED5F66
:103CC000FE4F0190F081E02D1082789490E080E02A
:103CD000C8CF84E090E0C5CF9093AA028093A90258
:103CE00008950E941C13811103C08091A4020895BD
:103CF000E091A902F091AA02309721F00190F081A1
:103D0000E02D099480E00895E091A902F091AA02C3
:103D1000309721F00280F381E02D09940895DC01B1
:103D2000E091A902F091AA02309739F082E08C93D9
:103D30000480F581E02DCD01099408952091A7021A
:103D40003091A8022817390771F09093A802809348
:103D5000A702E091A902F091AA02309721F0068013
:103D6000F781E02D099408952091A5023091A602D3
:103D70002817390771F09093A6028093A502E0916D
:103D8000A902F091AA02309721F00084F185E02D7C
:103D900009940895AC019C012E5F3F4F485F5F4F2F
:103DA00080E02417350709F40895F90191919F01E6
:103DB0009923B9F38F5FF5CF9C01662351F0FC0185
:103DC0003296285F3F4F8191861729F0E217F3075B
:103DD000D1F780E0089581E008959C01FC013296BE
:103DE0008FEF90E04191461751F08F3F19F4411148
:103DF00001C0892F9F5F9630A9F78F3F09F408957E
:103E0000280F311D87FD3A95F901628308959C01C1
:103E1000FC013296285F3F4F8191861303C0DF017A
:103E200011971C92E217F307B9F708950C94ED1E51
:103E30000C94071FFC01329686E0DF011D928A95E3
:103E4000E9F708951092D6021092D7021092D80284
:103E50001092D9020895CF92DF92EF92FF92CF9302
:103E6000DF9300D000D0CDB7DEB76B017C010E949C
:103E70001C1381110EC00E941420C61AD70AE80A2A
:103E8000F90AC092D602D092D702E092D802F092FC
:103E9000D9020F900F900F900F90DF91CF91FF906C
:103EA000EF90DF90CF900895CF93DF9300D000D0B4
:103EB000CDB7DEB70E941C13882341F00F900F90FE
:103EC0000F900F90DF91CF910C9414200E9414203A
:103ED00069837A838B839C838091D6029091D702E9
:103EE000A091D802B091D90229813A814B815C819D
:103EF000280F391F4A1F5B1FCA01B9010F900F908D
:103F00000F900F90DF91CF9108950895089508952F
:103F10000C94871F8091E202843049F10E94881F2F
:103F200080E00E948D021092AB0288E190E020E4D4
:103F30000FB6F894A895809360000FBE20936000A0
:103F400083B7817F846083BF83B7816083BF7894A8
:103F5000889583B78E7F83BF0FB6F894A89580911C
:103F60006000886180936000109260000FBE089529
:103F70000895CF930E94861F0E9492120E94B81F3C
:103F8000C0E08C2F0E945C11811105C0CF5FCC3046
:103F9000C1F7CF91089581E0FCCF08950C94CD1F17
:103FA0000E942E060E94711E0E948D020C94CE1F4C
:103FB0001F921FB61F9211248F939F93AF93BF93AD
:103FC0008091AB02811113C08091DA029091DB02E3
:103FD000A091DC02B091DD024196A11DB11D80933C
:103FE000DA029093DB02A093DC02B093DD02BF9172
:103FF000AF919F918F911F901FBE1F90189582E0E7
:1040000084BD93E095BD9AEF97BD80936E000895AF
:104010002FB7F8948091DA029091DB02A091DC0234
:10402000B091DD022FBF0895CF93DF9300D000D071
:10403000CDB7DEB78FB7F8942091DA023091DB026A
:104040004091DC025091DD0229833A834B835C83EB
:104050008FBF69817A818B819C810F900F900F9027
:104060000F90DF91CF9108959C014FB7F894809104
:10407000DA029091DB02A091DC02B091DD024FBF29
:10408000821B930B08950F931F93CF93DF9300D060
:1040900000D0CDB7DEB7462F572FBC012FB7F8940D
:1040A0008091DA029091DB02A091DC02B091DD02F6
:1040B0002FBF8C019D01041B150B260B370BC9016B
:1040C000B8010F900F900F900F90DF91CF911F913B
:1040D0000F91089578941F921FB61F9211248F9309
:1040E0009F93AF93BF938091DA029091DB02A091EE
:1040F000DC02B091DD020196A11DB11D8093DA02B0
:104100009093DB02A093DC02B093DD02BF91AF91EC
:104110009F918F911F901FBE1F90189581E08093F3
:10412000E00080E28093D8001092C9008FE19EE405
:104130000197F1F700C0000087E090EBDC0180936D
:10414000EB029093EC02A093ED02B093EE0288E1B3
:104150009CE00FB6F894A895809360000FBE9093F2
:104160006000FFCF9093C9018093C80108958091AA
:10417000B70208959091E202943031F58093AC0239
:104180006093AD027093AE0282E08093E9008FEFFE
:104190009091E800815095FD06C095ED9A95F1F754
:1041A00000008111F5CF8091E80085FF0DC050E03F
:1041B00040E063E070E08CEA92E00E94C8228091C7
:1041C000E8008E778093E8000895BC0184E00C94A9
:1041D000BA20BC0183E00C94BA2022E02093E900CD
:1041E0002FEF3091E800215035FD06C035ED3A95AE
:1041F000F1F700002111F5CF2091E80025FF0BC059
:1042000050E040E066E070E00E94C8228091E80043
:104210008E778093E8000895CF93DF93D82FC92F2E
:1042200081E08093E9008FEF9091E800815095FD47
:1042300006C095ED9A95F1F700008111F5CF8091B8
:10424000E80085FF16C050E040E068E070E08D2F88
:104250009C2F0E94C8228091E8008E778093E8000E
:1042600088E0ED2FFC2FAFEAB2E001900D928A9525
:10427000E1F7DF91CF9108958091E102811109C0AA
:104280000E9450240E94AD248091E20084608093BB
:10429000E20008951092E1020895089508950895A6
:1042A00042E061EC81E00E94CC2342E261EC82E0DA
:1042B0000C94CC238091E402893089F148F4823057
:1042C00009F49DC0833009F458C0813041F008954D
:1042D0008A3009F484C08B3009F46AC00895809153
:1042E000E302813A09F048C08091E800877F80931B
:1042F000E8008091E7029091E802892B61F468E080
:104300008FEA92E070E00E9417238091E8008B779B
:104310008093E800089560E090E080E0F3CF809122
:10432000E302813249F58091E7029091E802029719
:1043300018F58091E800877F8093E8008091E8007D
:1043400082FF16C09091F3008091F200029729F449
:104350008091F1008B7F813021F48091F100809376
:10436000B7028091E8008B778093E8000C940024DA
:104370008091E2028111E2CF08958091E302813AB7
:10438000D9F78091E7029091E802892BA9F78091F3
:10439000E800877F8093E8008091E80080FFFCCFF1
:1043A000809147018093F1008091E8008E77DCCF07
:1043B0008091E302813201F78091E7029091E80257
:1043C000892BD1F68091E800877F8093E8000E94D6
:1043D00000248091E502809347010C942E06809181
:1043E000E302813249F68091E800877F8093E800FC
:1043F0000E9400248091E6028093B8020895809183
:10440000E302813A09F0B8CF8091E800877F80937A
:10441000E8008091E80080FFFCCF8091B802C2CF15
:1044200084B7877F84BF0FB6F894A8958091600009
:10443000886180936000109260000FBE80E890E079
:104440000FB6F89480936100909361000FBE0C94B6
:10445000380E0E9450240E94AD24E2EEF0E08081EC
:104460008460808378940E9435270E944A0E8DE3F1
:1044700091E00C946C1E8091E202853031F48091C1
:10448000E202853021F00E94D01F0C94560E0E944B
:104490008A1F8091E002882391F30E94B91F88232C
:1044A00071F30E94B2220E942E06E9CF0C9458228A
:1044B000FC01CB01DA012F2F332723303105D1F056
:1044C00070F42130310509F43EC02230310569F421
:1044D0008BE390E020EF31E02D933C93089521325F
:1044E0003105E9F02232310521F190E080E030E041
:1044F00020E0F2CFCF019927E13059F082309105C9
:1045000059F0ECEEF1E0892B81F7849190E09F0166
:10451000E3CFEAEDF1E0F9CFECECF1E0F6CF892B57
:10452000B9F06130710509F789E090E02BE132E0E4
:10453000D3CF892B91F061307105B9F68BE790E00C
:104540002DE332E0C9CF82E190E02BE232E0C4CF2C
:1045500089E090E022E032E0BFCF80E490E028EBF9
:1045600032E0BACF80E189BD82E189BD09B400FEA5
:10457000FDCF8091D8008F7D8093D8008091E0009E
:1045800082608093E0008091E00081FDFCCF08957F
:10459000AF92BF92CF92DF92FF920F931F93CF9370
:1045A000DF936C01EB018A010E941F24F82E811118
:1045B00023C00115110539F0F80180819181C81BD4
:1045C000D90BC80ED91EB12CA12C2097A9F080912F
:1045D000E80085FD22C08091E8008E778093E80096
:1045E00001151105A1F0F80180819181A80EB91E75
:1045F000B182A08285E0F82E8F2DDF91CF911F919F
:104600000F91FF90DF90CF90BF90AF9008950E94E0
:104610001F248823D1F2F82EEFCFF60181916F018C
:104620008093F1002197FFEFAF1ABF0ACECFFC01B4
:10463000CB012091E9023091EA022617370790F06A
:10464000009729F42091E8002E772093E80040E0BD
:10465000009751F4411108C08091E80082FF31C0F9
:1046600080E00895C901F3CF2091E2022223A9F14D
:104670002530A9F12091E80023FD2DC02091E8000C
:1046800022FDEACF2091E80020FFE2CF3091F30035
:104690002091F200009719F02830310558F041E0E0
:1046A0002830310509F040E02091E8002E77209372
:1046B000E800CECF41914093F10001972F5F3F4F2B
:1046C000E9CF8091E202882341F0853041F080916A
:1046D000E80083FFC1CF81E0089582E0089583E080
:1046E0000895FC01CB012091E9023091EA022617DE
:1046F000370790F0009729F42091E8002E77209357
:10470000E80040E0009751F4411108C08091E800B2
:1047100082FF32C080E00895C901F3CF2091E20208
:104720002223B1F12530B1F12091E80023FD2EC004
:104730002091E80022FDEACF2091E80020FFE2CF9F
:104740003091F3002091F200009719F028303105E4
:1047500058F041E02830310509F040E02091E800B0
:104760002E772093E800CECF44914093F10031960C
:1047700001972F5F3F4FE8CF8091E202882341F0FD
:10478000853041F08091E80083FFC0CF81E008953B
:1047900082E0089583E00895982F973028F08F7075
:1047A0008093E90081E008959093E900242F762F0B
:1047B00050E0981731F07091EC002091ED0050918D
:1047C000F00021FD02C09F5FE8CF3091EB003E7FFB
:1047D0003093EB003091ED003D7F3093ED00309150
:1047E000EB0031603093EB007093EC002093ED0010
:1047F0005093F0002091EE0027FDE5CF80E0089572
:104800008091E30287FF13C08091E80082FF06C019
:104810008091E8008B778093E80004C08091E202E9
:104820008111F2CF08958091E2028823D9F380911B
:10483000E80080FFF8CF8091E8008E77ECCF2091E0
:10484000E4003091E50095E6A9012091EC00822F6B
:10485000817020FF06C08091E80080FF06C080E0E4
:1048600008952091E80022FD1AC08091E202882379
:1048700089F0853089F08091EB0085FD0FC0209193
:10488000E4003091E50042175307F9F29150E1F648
:1048900084E0089582E0089583E0089581E008951A
:1048A0000E94BE240E94C624E0EEF0E08081816078
:1048B0008083E8EDF0E080818F77808319BCA7EDDD
:1048C000B0E08C918E7F8C9380818F7E808310925C
:1048D000E10208950F931F93CF93DF930E94BE24AC
:1048E0000E94C624C8EDD0E088818F7788838881B4
:1048F0008068888388818F7D888319BC1092E2024A
:104900001092DE021092E0021092DF0200EE10E040
:10491000F80180818B7F808388818160888342E079
:1049200060E080E00E94CC23E1EEF0E080818E7FA9
:104930008083E2EEF0E08081816080838081886006
:104940008083F80180818E7F808388818061888365
:10495000DF91CF911F910F910895E8EDF0E08081F4
:104960008F7E8083E7EDF0E080818160808384E04A
:1049700082BF81E08093E1020C946A24E8EDF0E0CC
:1049800080818E7F80831092E20008951092DA0079
:104990001092E10008951F920F920FB60F9211240A
:1049A0002F933F934F935F936F937F938F939F9337
:1049B000AF93BF93EF93FF938091E10082FF0BC011
:1049C0008091E20082FF07C08091E1008B7F80939D
:1049D000E1000E9434278091DA0080FF19C08091A5
:1049E000D80080FF15C08091DA008E7F8093DA00B6
:1049F0008091D90080FF94C080E189BD82E189BDAA
:104A000009B400FEFDCF81E08093E2020E943C21C8
:104A10008091E10080FF19C08091E20080FF15C005
:104A20008091E2008E7F8093E2008091E2008061BD
:104A30008093E2008091D80080628093D80019BCF6
:104A400085E08093E2020E944E218091E10084FF84
:104A500029C08091E20084FF25C080E189BD82E108
:104A600089BD09B400FEFDCF8091D8008F7D809371
:104A7000D8008091E1008F7E8093E1008091E20078
:104A80008F7E8093E2008091E20081608093E2005B
:104A90008091DE02882309F449C084E08093E20219
:104AA0000E944F218091E10083FF29C08091E200A4
:104AB00083FF25C08091E100877F8093E10082E041
:104AC0008093E2021092DE028091E1008E7F80935B
:104AD000E1008091E2008E7F8093E2008091E2000D
:104AE00080618093E20042E060E080E00E94CC239D
:104AF0008091F00088608093F0000E944D21FF912A
:104B0000EF91BF91AF919F918F917F916F915F9145
:104B10004F913F912F910F900FBE0F901F901895BE
:104B200019BC1092E2020E944A2172CF8091E300E8
:104B300087FD02C081E0B2CF83E0B0CF1F920F9219
:104B40000FB60F9211242F933F934F935F936F9360
:104B50007F938F939F93AF93BF93CF93DF93EF9305
:104B6000FF93D091E900DF708091EC00C82FC170F5
:104B700080FDC0E81092E9008091F000877F80936B
:104B8000F00078940E94E2251092E9008091F000F4
:104B900088608093F000CD2BCF70C093E900FF9127
:104BA000EF91DF91CF91BF91AF919F918F917F91C5
:104BB0006F915F914F913F912F910F900FBE0F908A
:104BC0001F9018951F93CF93DF93CDB7DEB7AA97A9
:104BD0000FB6F894DEBF0FBECDBF83EE92E0FC01AE
:104BE00001962091F100208322E08B3E9207B9F7D5
:104BF0000E945A218091E80083FF1EC18091E30248
:104C00009091E4029A3008F017C1E92FF0E0E45CDB
:104C1000F74D0C947627803899F0823809F00CC152
:104C20008091E7028F70873008F006C18093E90019
:104C30008091EB0085FB882780F91092E90006C07F
:104C40008091DF029091E002911182609091E800E2
:104C5000977F9093E8008093F1001092F10080918B
:104C6000E8008E77E5C0882309F4D3C0823009F0CC
:104C7000E3C08091E5028111D6C08091E7028F7078
:104C80002FEF280F263008F0D7C08093E90020913D
:104C9000EB0020FFC8C0933031F48091EB008062BC
:104CA0008093EB00C0C09091EB0090619093EB007B
:104CB00021E030E001C0220F8A95EAF72093EA0054
:104CC0001092EA008091EB008860EACF8111B4C0B5
:104CD0001091E5021F778091E3008078812B80930B
:104CE000E3008091E800877F8093E8000E94002421
:104CF0008091E80080FFFCCF8091E3008068809382
:104D0000E30082E0111183E08093E20295C08058B5
:104D1000823008F091C08091E5029091E6028C3DCE
:104D200023E09207A1F583E08A838AE289834FB763
:104D3000F894DE01139620E03EE051E2E32FF0E02C
:104D400050935700E49120FF03C0E295EF703F5F5E
:104D5000EF708E2F90E0EA30C0F0C7968D939D9350
:104D60002F5F243159F74FBF8091E800877F8093F0
:104D7000E8006AE270E0CE0101960E94172380915C
:104D8000E8008B778093E80057C0C096E7CF60912A
:104D9000E7027091E802AE014F5F5F4F0E9456221A
:104DA000BC01892B09F448C08091E800877F80937B
:104DB000E80089819A810E947123E1CF8038E1F572
:104DC0008091E800877F8093E8008091DE028093E5
:104DD000F10045CF811130C09091E502923060F52D
:104DE0008091E800877F8093E8009093DE020E9424
:104DF00000248091DE02882311F084E005C08091B8
:104E0000E30087FDFACF81E08093E2020E94502107
:104E100013C08091E502813079F481E0933009F08C
:104E200080E08093E0021092E9008091E800877FA3
:104E30008093E8000E9400248091E80083FF0AC06C
:104E40008091E800877F8093E8008091EB0080628A
:104E50008093EB00AA960FB6F894DEBF0FBECDBFCD
:104E6000DF91CF911F9108950895CF938091E20231
:104E70008823A1F0C091E900CF709091EC00892FB8
:104E8000817090FD80E8C82B1092E9008091E800C5
:104E900083FD0E94E225CF70C093E900CF91089571
:104EA0000E9450241092E2020895E8EDF0E0808123
:104EB000806180838AE18A95F1F700C08091D900F2
:104EC0008170089597FB072E16F4009407D077FDA4
:104ED00009D00E947C2707FC05D03EF4909581956F
:104EE0009F4F0895709561957F4F0895EE0FFF1FB6
:104EF0000590F491E02D0994AA1BBB1B51E107C05A
:104F0000AA1FBB1FA617B70710F0A61BB70B881F59
:104F1000991F5A95A9F780959095BC01CD010895E8
:104F2000FB01DC0104C08D910190801921F44150F6
:104F30005040C8F7881B990B0895FB01DC0102C0A3
:104F400001900D9241505040D8F70895F999FECF45
:104F500092BD81BDF89A992780B50895A8E1B0E087
:104F600042E050E00C94DA27262FF999FECF92BD4B
:104F700081BDF89A019700B4021639F01FBA20BD1E
:104F80000FB6F894FA9AF99A0FBE08950396272F50
:104F90000E94B5270E94B427252F0E94B527242FF1
:104FA0000C94B5270196272F0E94B5270C94B4279F
:104FB000DC01CB01FC01F999FECF06C0F2BDE1BDD9
:104FC000F89A319600B40D9241505040B8F70895C8
:104FD000F894FFCFBF03BF03210421047604920499
:104FE000EF03EF039D04470558055805B905EF0386
:104FF000EF03C20535162C1638162216271627166B
:10500000221627162716541627165F162716271658
:1050100027162716271622162716271622162716B2
:10502000461627162716701670167016701670160C
:1050300070167016701670166A1627163516291611
:10504000951B9B1B9F1BAD1BB11BB51BB91BBF1B2E
:10505000C71BCB1BCF1BD31BDF1BE31BE71BEB1BB0
:10506000F11B0F1CF91BA31BA91BD71BDB1BC31BAD
:10507000F51B051C181C1C1C0B2633261C2733266D
:0C5080001C27662687261C27DE26EA2651
:10508C003A0201D5020000000100000000D5020028
:10509C0000000601000000D502000000010700001E
:1050AC0000D5020000000108000000D50204090030
:1050BC0000000000002808641E140A321EB7200CE1
:1050CC0021ED20E920E52001E200E900EA00B5002D
:1050DC00B600B700CD008301CC008A019201940187
:1050EC002102230224022502260227022A02B300EF
:1050FC00B4006F007000E200E900EA00B500B600F1
:10510C00B700CD008301CC008A01920194012102E9
:10511C00230224022502260227022A02B300B4002D
:10512C006F007000946697C63435F6F7313332361B
:10513C00000000000000660200FF0100010000FFFB
:08514C00FF0000010001FF005B
:00000001FF
